{
	"contractName": "BSCMemepad",
	"abi": [
		{
			"inputs": [
				{
					"internalType": "address",
					"name": "_user",
					"type": "address"
				}
			],
			"stateMutability": "nonpayable",
			"type": "constructor"
		},
		{
			"anonymous": false,
			"inputs": [
				{
					"indexed": true,
					"internalType": "address",
					"name": "owner",
					"type": "address"
				},
				{
					"indexed": true,
					"internalType": "address",
					"name": "spender",
					"type": "address"
				},
				{
					"indexed": false,
					"internalType": "uint256",
					"name": "value",
					"type": "uint256"
				}
			],
			"name": "Approval",
			"type": "event"
		},
		{
			"anonymous": false,
			"inputs": [
				{
					"indexed": true,
					"internalType": "address",
					"name": "previousOwner",
					"type": "address"
				},
				{
					"indexed": true,
					"internalType": "address",
					"name": "newOwner",
					"type": "address"
				}
			],
			"name": "OwnershipTransferred",
			"type": "event"
		},
		{
			"anonymous": false,
			"inputs": [
				{
					"indexed": true,
					"internalType": "address",
					"name": "from",
					"type": "address"
				},
				{
					"indexed": true,
					"internalType": "address",
					"name": "to",
					"type": "address"
				},
				{
					"indexed": false,
					"internalType": "uint256",
					"name": "value",
					"type": "uint256"
				}
			],
			"name": "Transfer",
			"type": "event"
		},
		{
			"inputs": [
				{
					"internalType": "address",
					"name": "owner",
					"type": "address"
				},
				{
					"internalType": "address",
					"name": "spender",
					"type": "address"
				}
			],
			"name": "allowance",
			"outputs": [
				{
					"internalType": "uint256",
					"name": "",
					"type": "uint256"
				}
			],
			"stateMutability": "view",
			"type": "function",
			"constant": true
		},
		{
			"inputs": [
				{
					"internalType": "address",
					"name": "spender",
					"type": "address"
				},
				{
					"internalType": "uint256",
					"name": "amount",
					"type": "uint256"
				}
			],
			"name": "approve",
			"outputs": [
				{
					"internalType": "bool",
					"name": "",
					"type": "bool"
				}
			],
			"stateMutability": "nonpayable",
			"type": "function"
		},
		{
			"inputs": [
				{
					"internalType": "address",
					"name": "account",
					"type": "address"
				}
			],
			"name": "balanceOf",
			"outputs": [
				{
					"internalType": "uint256",
					"name": "",
					"type": "uint256"
				}
			],
			"stateMutability": "view",
			"type": "function",
			"constant": true
		},
		{
			"inputs": [
				{
					"internalType": "uint256",
					"name": "amount",
					"type": "uint256"
				}
			],
			"name": "burn",
			"outputs": [],
			"stateMutability": "nonpayable",
			"type": "function"
		},
		{
			"inputs": [
				{
					"internalType": "address",
					"name": "account",
					"type": "address"
				},
				{
					"internalType": "uint256",
					"name": "amount",
					"type": "uint256"
				}
			],
			"name": "burnFrom",
			"outputs": [],
			"stateMutability": "nonpayable",
			"type": "function"
		},
		{
			"inputs": [],
			"name": "decimals",
			"outputs": [
				{
					"internalType": "uint8",
					"name": "",
					"type": "uint8"
				}
			],
			"stateMutability": "view",
			"type": "function",
			"constant": true
		},
		{
			"inputs": [
				{
					"internalType": "address",
					"name": "spender",
					"type": "address"
				},
				{
					"internalType": "uint256",
					"name": "subtractedValue",
					"type": "uint256"
				}
			],
			"name": "decreaseAllowance",
			"outputs": [
				{
					"internalType": "bool",
					"name": "",
					"type": "bool"
				}
			],
			"stateMutability": "nonpayable",
			"type": "function"
		},
		{
			"inputs": [
				{
					"internalType": "address",
					"name": "spender",
					"type": "address"
				},
				{
					"internalType": "uint256",
					"name": "addedValue",
					"type": "uint256"
				}
			],
			"name": "increaseAllowance",
			"outputs": [
				{
					"internalType": "bool",
					"name": "",
					"type": "bool"
				}
			],
			"stateMutability": "nonpayable",
			"type": "function"
		},
		{
			"inputs": [],
			"name": "liquidityPercentage",
			"outputs": [
				{
					"internalType": "uint256",
					"name": "",
					"type": "uint256"
				}
			],
			"stateMutability": "view",
			"type": "function",
			"constant": true
		},
		{
			"inputs": [],
			"name": "liquidityToken",
			"outputs": [
				{
					"internalType": "uint256",
					"name": "",
					"type": "uint256"
				}
			],
			"stateMutability": "view",
			"type": "function",
			"constant": true
		},
		{
			"inputs": [],
			"name": "marketingPercentage",
			"outputs": [
				{
					"internalType": "uint256",
					"name": "",
					"type": "uint256"
				}
			],
			"stateMutability": "view",
			"type": "function",
			"constant": true
		},
		{
			"inputs": [],
			"name": "marketingToken",
			"outputs": [
				{
					"internalType": "uint256",
					"name": "",
					"type": "uint256"
				}
			],
			"stateMutability": "view",
			"type": "function",
			"constant": true
		},
		{
			"inputs": [],
			"name": "name",
			"outputs": [
				{
					"internalType": "string",
					"name": "",
					"type": "string"
				}
			],
			"stateMutability": "view",
			"type": "function",
			"constant": true
		},
		{
			"inputs": [],
			"name": "owner",
			"outputs": [
				{
					"internalType": "address",
					"name": "",
					"type": "address"
				}
			],
			"stateMutability": "view",
			"type": "function",
			"constant": true
		},
		{
			"inputs": [],
			"name": "partnersPercentage",
			"outputs": [
				{
					"internalType": "uint256",
					"name": "",
					"type": "uint256"
				}
			],
			"stateMutability": "view",
			"type": "function",
			"constant": true
		},
		{
			"inputs": [],
			"name": "partnersToken",
			"outputs": [
				{
					"internalType": "uint256",
					"name": "",
					"type": "uint256"
				}
			],
			"stateMutability": "view",
			"type": "function",
			"constant": true
		},
		{
			"inputs": [],
			"name": "percentageDivider",
			"outputs": [
				{
					"internalType": "uint256",
					"name": "",
					"type": "uint256"
				}
			],
			"stateMutability": "view",
			"type": "function",
			"constant": true
		},
		{
			"inputs": [],
			"name": "privatePrice",
			"outputs": [
				{
					"internalType": "uint256",
					"name": "",
					"type": "uint256"
				}
			],
			"stateMutability": "view",
			"type": "function",
			"constant": true
		},
		{
			"inputs": [],
			"name": "privateSalePercentage",
			"outputs": [
				{
					"internalType": "uint256",
					"name": "",
					"type": "uint256"
				}
			],
			"stateMutability": "view",
			"type": "function",
			"constant": true
		},
		{
			"inputs": [],
			"name": "privateSaleToken",
			"outputs": [
				{
					"internalType": "uint256",
					"name": "",
					"type": "uint256"
				}
			],
			"stateMutability": "view",
			"type": "function",
			"constant": true
		},
		{
			"inputs": [],
			"name": "publicPrice",
			"outputs": [
				{
					"internalType": "uint256",
					"name": "",
					"type": "uint256"
				}
			],
			"stateMutability": "view",
			"type": "function",
			"constant": true
		},
		{
			"inputs": [],
			"name": "publicSalePercentage",
			"outputs": [
				{
					"internalType": "uint256",
					"name": "",
					"type": "uint256"
				}
			],
			"stateMutability": "view",
			"type": "function",
			"constant": true
		},
		{
			"inputs": [],
			"name": "publicSaleToken",
			"outputs": [
				{
					"internalType": "uint256",
					"name": "",
					"type": "uint256"
				}
			],
			"stateMutability": "view",
			"type": "function",
			"constant": true
		},
		{
			"inputs": [],
			"name": "renounceOwnership",
			"outputs": [],
			"stateMutability": "nonpayable",
			"type": "function"
		},
		{
			"inputs": [],
			"name": "reserveFundPercentage",
			"outputs": [
				{
					"internalType": "uint256",
					"name": "",
					"type": "uint256"
				}
			],
			"stateMutability": "view",
			"type": "function",
			"constant": true
		},
		{
			"inputs": [],
			"name": "reserveToken",
			"outputs": [
				{
					"internalType": "uint256",
					"name": "",
					"type": "uint256"
				}
			],
			"stateMutability": "view",
			"type": "function",
			"constant": true
		},
		{
			"inputs": [],
			"name": "seedPrice",
			"outputs": [
				{
					"internalType": "uint256",
					"name": "",
					"type": "uint256"
				}
			],
			"stateMutability": "view",
			"type": "function",
			"constant": true
		},
		{
			"inputs": [],
			"name": "seedToken",
			"outputs": [
				{
					"internalType": "uint256",
					"name": "",
					"type": "uint256"
				}
			],
			"stateMutability": "view",
			"type": "function",
			"constant": true
		},
		{
			"inputs": [],
			"name": "seedTokenPercentage",
			"outputs": [
				{
					"internalType": "uint256",
					"name": "",
					"type": "uint256"
				}
			],
			"stateMutability": "view",
			"type": "function",
			"constant": true
		},
		{
			"inputs": [],
			"name": "stakingPercentage",
			"outputs": [
				{
					"internalType": "uint256",
					"name": "",
					"type": "uint256"
				}
			],
			"stateMutability": "view",
			"type": "function",
			"constant": true
		},
		{
			"inputs": [],
			"name": "stakingToken",
			"outputs": [
				{
					"internalType": "uint256",
					"name": "",
					"type": "uint256"
				}
			],
			"stateMutability": "view",
			"type": "function",
			"constant": true
		},
		{
			"inputs": [],
			"name": "symbol",
			"outputs": [
				{
					"internalType": "string",
					"name": "",
					"type": "string"
				}
			],
			"stateMutability": "view",
			"type": "function",
			"constant": true
		},
		{
			"inputs": [],
			"name": "teamPercentage",
			"outputs": [
				{
					"internalType": "uint256",
					"name": "",
					"type": "uint256"
				}
			],
			"stateMutability": "view",
			"type": "function",
			"constant": true
		},
		{
			"inputs": [],
			"name": "teamToken",
			"outputs": [
				{
					"internalType": "uint256",
					"name": "",
					"type": "uint256"
				}
			],
			"stateMutability": "view",
			"type": "function",
			"constant": true
		},
		{
			"inputs": [],
			"name": "totalSupply",
			"outputs": [
				{
					"internalType": "uint256",
					"name": "",
					"type": "uint256"
				}
			],
			"stateMutability": "view",
			"type": "function",
			"constant": true
		},
		{
			"inputs": [
				{
					"internalType": "address",
					"name": "recipient",
					"type": "address"
				},
				{
					"internalType": "uint256",
					"name": "amount",
					"type": "uint256"
				}
			],
			"name": "transfer",
			"outputs": [
				{
					"internalType": "bool",
					"name": "",
					"type": "bool"
				}
			],
			"stateMutability": "nonpayable",
			"type": "function"
		},
		{
			"inputs": [
				{
					"internalType": "address",
					"name": "sender",
					"type": "address"
				},
				{
					"internalType": "address",
					"name": "recipient",
					"type": "address"
				},
				{
					"internalType": "uint256",
					"name": "amount",
					"type": "uint256"
				}
			],
			"name": "transferFrom",
			"outputs": [
				{
					"internalType": "bool",
					"name": "",
					"type": "bool"
				}
			],
			"stateMutability": "nonpayable",
			"type": "function"
		},
		{
			"inputs": [
				{
					"internalType": "address",
					"name": "newOwner",
					"type": "address"
				}
			],
			"name": "transferOwnership",
			"outputs": [],
			"stateMutability": "nonpayable",
			"type": "function"
		},
		{
			"stateMutability": "payable",
			"type": "receive",
			"payable": true
		},
		{
			"inputs": [],
			"name": "fallabck",
			"outputs": [],
			"stateMutability": "payable",
			"type": "function",
			"payable": true
		},
		{
			"inputs": [],
			"name": "getBalance",
			"outputs": [
				{
					"internalType": "uint256",
					"name": "",
					"type": "uint256"
				}
			],
			"stateMutability": "view",
			"type": "function",
			"constant": true
		}
	],
	"bytecode": "0x60806040523480156200001157600080fd5b5060405162002e9738038062002e9783398181016040528101906200003791906200073e565b6040518060400160405280600a81526020017f4253434d656d65706164000000000000000000000000000000000000000000008152506040518060400160405280600781526020017f4253434d504144000000000000000000000000000000000000000000000000008152508160039080519060200190620000bb92919062000624565b508060049080519060200190620000d492919062000624565b505050620000f7620000eb620003a360201b60201c565b620003ab60201b60201c565b62000139612710620001256102ee6a4a723dc6b40b8a9a0000006200047160201b6200117e1790919060201c565b6200048960201b620011941790919060201c565b600681905550620001816127106200016d6107d06a4a723dc6b40b8a9a0000006200047160201b6200117e1790919060201c565b6200048960201b620011941790919060201c565b600781905550620001c9612710620001b56104e26a4a723dc6b40b8a9a0000006200047160201b6200117e1790919060201c565b6200048960201b620011941790919060201c565b60088190555062000211612710620001fd6105dc6a4a723dc6b40b8a9a0000006200047160201b6200117e1790919060201c565b6200048960201b620011941790919060201c565b60098190555062000259612710620002456103e86a4a723dc6b40b8a9a0000006200047160201b6200117e1790919060201c565b6200048960201b620011941790919060201c565b600a81905550620002a16127106200028d6101f46a4a723dc6b40b8a9a0000006200047160201b6200117e1790919060201c565b6200048960201b620011941790919060201c565b600b81905550620002e9612710620002d56101f46a4a723dc6b40b8a9a0000006200047160201b6200117e1790919060201c565b6200048960201b620011941790919060201c565b600c81905550620003316127106200031d6107d06a4a723dc6b40b8a9a0000006200047160201b6200117e1790919060201c565b6200048960201b620011941790919060201c565b600d8190555062000379612710620003656101f46a4a723dc6b40b8a9a0000006200047160201b6200117e1790919060201c565b6200048960201b620011941790919060201c565b600e819055506200039c816a4a723dc6b40b8a9a000000620004a160201b60201c565b50620009e4565b600033905090565b6000600560009054906101000a900473ffffffffffffffffffffffffffffffffffffffff16905081600560006101000a81548173ffffffffffffffffffffffffffffffffffffffff021916908373ffffffffffffffffffffffffffffffffffffffff1602179055508173ffffffffffffffffffffffffffffffffffffffff168173ffffffffffffffffffffffffffffffffffffffff167f8be0079c531659141344cd1fd0a4f28419497f9722a3daafe3b4186f6b6457e060405160405180910390a35050565b60008183620004819190620007a9565b905092915050565b6000818362000499919062000839565b905092915050565b600073ffffffffffffffffffffffffffffffffffffffff168273ffffffffffffffffffffffffffffffffffffffff16141562000514576040517f08c379a00000000000000000000000000000000000000000000000000000000081526004016200050b90620008d2565b60405180910390fd5b62000528600083836200061a60201b60201c565b80600260008282546200053c9190620008f4565b92505081905550806000808473ffffffffffffffffffffffffffffffffffffffff1673ffffffffffffffffffffffffffffffffffffffff1681526020019081526020016000206000828254620005939190620008f4565b925050819055508173ffffffffffffffffffffffffffffffffffffffff16600073ffffffffffffffffffffffffffffffffffffffff167fddf252ad1be2c89b69c2b068fc378daa952ba7f163c4a11628f55a4df523b3ef83604051620005fa919062000962565b60405180910390a362000616600083836200061f60201b60201c565b5050565b505050565b505050565b8280546200063290620009ae565b90600052602060002090601f016020900481019282620006565760008555620006a2565b82601f106200067157805160ff1916838001178555620006a2565b82800160010185558215620006a2579182015b82811115620006a157825182559160200191906001019062000684565b5b509050620006b19190620006b5565b5090565b5b80821115620006d0576000816000905550600101620006b6565b5090565b600080fd5b600073ffffffffffffffffffffffffffffffffffffffff82169050919050565b60006200070682620006d9565b9050919050565b6200071881620006f9565b81146200072457600080fd5b50565b60008151905062000738816200070d565b92915050565b600060208284031215620007575762000756620006d4565b5b6000620007678482850162000727565b91505092915050565b6000819050919050565b7f4e487b7100000000000000000000000000000000000000000000000000000000600052601160045260246000fd5b6000620007b68262000770565b9150620007c38362000770565b9250817fffffffffffffffffffffffffffffffffffffffffffffffffffffffffffffffff0483118215151615620007ff57620007fe6200077a565b5b828202905092915050565b7f4e487b7100000000000000000000000000000000000000000000000000000000600052601260045260246000fd5b6000620008468262000770565b9150620008538362000770565b9250826200086657620008656200080a565b5b828204905092915050565b600082825260208201905092915050565b7f45524332303a206d696e7420746f20746865207a65726f206164647265737300600082015250565b6000620008ba601f8362000871565b9150620008c78262000882565b602082019050919050565b60006020820190508181036000830152620008ed81620008ab565b9050919050565b6000620009018262000770565b91506200090e8362000770565b9250827fffffffffffffffffffffffffffffffffffffffffffffffffffffffffffffffff038211156200094657620009456200077a565b5b828201905092915050565b6200095c8162000770565b82525050565b600060208201905062000979600083018462000951565b92915050565b7f4e487b7100000000000000000000000000000000000000000000000000000000600052602260045260246000fd5b60006002820490506001821680620009c757607f821691505b60208210811415620009de57620009dd6200097f565b5b50919050565b6124a380620009f46000396000f3fe60806040526004361061023f5760003560e01c806379cc67901161012e578063a945bf80116100ab578063de20308a1161006f578063de20308a146108bf578063e96b7d3a146108ea578063f2fde38b14610915578063f4325d671461093e578063f45b9bed1461096957610294565b8063a945bf80146107d6578063afaf97e714610801578063b8cc26321461082c578063d6a9e9d114610857578063dd62ed3e1461088257610294565b80638da5cb5b116100f25780638da5cb5b146106db57806395d89b41146107065780639f5991f014610731578063a457c2d71461075c578063a9059cbb1461079957610294565b806379cc6790146106065780637e34cd3d1461062f57806381e1ccba1461065a57806387c0568b146106855780638a095e13146106b057610294565b8063321dae25116101bc578063660aab1711610180578063660aab17146105315780636de2b8c11461055c57806370a0823114610587578063715018a6146105c457806372f702f3146105db57610294565b8063321dae251461044a578063395093511461047557806342966c68146104b257806343cd8f7e146104db5780635b5628791461050657610294565b806318160ddd1161020357806318160ddd146103615780631d7adbf41461038c57806323b872dd146103b7578063311f8483146103f4578063313ce5671461041f57610294565b8063048b87ba14610299578063069fbdc9146102c457806306fdde03146102ce578063095ea7b3146102f957806312065fe01461033657610294565b366102945761024c610994565b73ffffffffffffffffffffffffffffffffffffffff166108fc349081150290604051600060405180830381858888f19350505050158015610291573d6000803e3d6000fd5b50005b600080fd5b3480156102a557600080fd5b506102ae6109be565b6040516102bb91906118be565b60405180910390f35b6102cc6109c4565b005b3480156102da57600080fd5b506102e3610a1b565b6040516102f09190611972565b60405180910390f35b34801561030557600080fd5b50610320600480360381019061031b9190611a23565b610aad565b60405161032d9190611a7e565b60405180910390f35b34801561034257600080fd5b5061034b610acb565b60405161035891906118be565b60405180910390f35b34801561036d57600080fd5b50610376610ad3565b60405161038391906118be565b60405180910390f35b34801561039857600080fd5b506103a1610add565b6040516103ae91906118be565b60405180910390f35b3480156103c357600080fd5b506103de60048036038101906103d99190611a99565b610ae3565b6040516103eb9190611a7e565b60405180910390f35b34801561040057600080fd5b50610409610bdb565b60405161041691906118be565b60405180910390f35b34801561042b57600080fd5b50610434610be1565b6040516104419190611b08565b60405180910390f35b34801561045657600080fd5b5061045f610bea565b60405161046c91906118be565b60405180910390f35b34801561048157600080fd5b5061049c60048036038101906104979190611a23565b610bf0565b6040516104a99190611a7e565b60405180910390f35b3480156104be57600080fd5b506104d960048036038101906104d49190611b23565b610c9c565b005b3480156104e757600080fd5b506104f0610cb0565b6040516104fd91906118be565b60405180910390f35b34801561051257600080fd5b5061051b610cb6565b60405161052891906118be565b60405180910390f35b34801561053d57600080fd5b50610546610cbc565b60405161055391906118be565b60405180910390f35b34801561056857600080fd5b50610571610cc2565b60405161057e91906118be565b60405180910390f35b34801561059357600080fd5b506105ae60048036038101906105a99190611b50565b610cc8565b6040516105bb91906118be565b60405180910390f35b3480156105d057600080fd5b506105d9610d10565b005b3480156105e757600080fd5b506105f0610d98565b6040516105fd91906118be565b60405180910390f35b34801561061257600080fd5b5061062d60048036038101906106289190611a23565b610d9e565b005b34801561063b57600080fd5b50610644610e19565b60405161065191906118be565b60405180910390f35b34801561066657600080fd5b5061066f610e1e565b60405161067c91906118be565b60405180910390f35b34801561069157600080fd5b5061069a610e24565b6040516106a791906118be565b60405180910390f35b3480156106bc57600080fd5b506106c5610e29565b6040516106d291906118be565b60405180910390f35b3480156106e757600080fd5b506106f0610994565b6040516106fd9190611b8c565b60405180910390f35b34801561071257600080fd5b5061071b610e2f565b6040516107289190611972565b60405180910390f35b34801561073d57600080fd5b50610746610ec1565b60405161075391906118be565b60405180910390f35b34801561076857600080fd5b50610783600480360381019061077e9190611a23565b610ec7565b6040516107909190611a7e565b60405180910390f35b3480156107a557600080fd5b506107c060048036038101906107bb9190611a23565b610fb2565b6040516107cd9190611a7e565b60405180910390f35b3480156107e257600080fd5b506107eb610fd0565b6040516107f891906118be565b60405180910390f35b34801561080d57600080fd5b50610816610fd5565b60405161082391906118be565b60405180910390f35b34801561083857600080fd5b50610841610fdb565b60405161084e91906118be565b60405180910390f35b34801561086357600080fd5b5061086c610fe1565b60405161087991906118be565b60405180910390f35b34801561088e57600080fd5b506108a960048036038101906108a49190611ba7565b610fe7565b6040516108b691906118be565b60405180910390f35b3480156108cb57600080fd5b506108d461106e565b6040516108e191906118be565b60405180910390f35b3480156108f657600080fd5b506108ff611074565b60405161090c91906118be565b60405180910390f35b34801561092157600080fd5b5061093c60048036038101906109379190611b50565b61107a565b005b34801561094a57600080fd5b50610953611172565b60405161096091906118be565b60405180910390f35b34801561097557600080fd5b5061097e611178565b60405161098b91906118be565b60405180910390f35b6000600560009054906101000a900473ffffffffffffffffffffffffffffffffffffffff16905090565b6105dc81565b6109cc610994565b73ffffffffffffffffffffffffffffffffffffffff166108fc6109ed610acb565b9081150290604051600060405180830381858888f19350505050158015610a18573d6000803e3d6000fd5b50565b606060038054610a2a90611c16565b80601f0160208091040260200160405190810160405280929190818152602001828054610a5690611c16565b8015610aa35780601f10610a7857610100808354040283529160200191610aa3565b820191906000526020600020905b815481529060010190602001808311610a8657829003601f168201915b5050505050905090565b6000610ac1610aba6111aa565b84846111b2565b6001905092915050565b600047905090565b6000600254905090565b6102ee81565b6000610af084848461137d565b6000600160008673ffffffffffffffffffffffffffffffffffffffff1673ffffffffffffffffffffffffffffffffffffffff1681526020019081526020016000206000610b3b6111aa565b73ffffffffffffffffffffffffffffffffffffffff1673ffffffffffffffffffffffffffffffffffffffff16815260200190815260200160002054905082811015610bbb576040517f08c379a0000000000000000000000000000000000000000000000000000000008152600401610bb290611cba565b60405180910390fd5b610bcf85610bc76111aa565b8584036111b2565b60019150509392505050565b60065481565b60006012905090565b6101f481565b6000610c92610bfd6111aa565b848460016000610c0b6111aa565b73ffffffffffffffffffffffffffffffffffffffff1673ffffffffffffffffffffffffffffffffffffffff16815260200190815260200160002060008873ffffffffffffffffffffffffffffffffffffffff1673ffffffffffffffffffffffffffffffffffffffff16815260200190815260200160002054610c8d9190611d09565b6111b2565b6001905092915050565b610cad610ca76111aa565b826115fe565b50565b60095481565b61271081565b6107d081565b600c5481565b60008060008373ffffffffffffffffffffffffffffffffffffffff1673ffffffffffffffffffffffffffffffffffffffff168152602001908152602001600020549050919050565b610d186111aa565b73ffffffffffffffffffffffffffffffffffffffff16610d36610994565b73ffffffffffffffffffffffffffffffffffffffff1614610d8c576040517f08c379a0000000000000000000000000000000000000000000000000000000008152600401610d8390611dab565b60405180910390fd5b610d9660006117d5565b565b600d5481565b6000610db183610dac6111aa565b610fe7565b905081811015610df6576040517f08c379a0000000000000000000000000000000000000000000000000000000008152600401610ded90611e3d565b60405180910390fd5b610e0a83610e026111aa565b8484036111b2565b610e1483836115fe565b505050565b600a81565b6107d081565b601481565b600b5481565b606060048054610e3e90611c16565b80601f0160208091040260200160405190810160405280929190818152602001828054610e6a90611c16565b8015610eb75780601f10610e8c57610100808354040283529160200191610eb7565b820191906000526020600020905b815481529060010190602001808311610e9a57829003601f168201915b5050505050905090565b60085481565b60008060016000610ed66111aa565b73ffffffffffffffffffffffffffffffffffffffff1673ffffffffffffffffffffffffffffffffffffffff16815260200190815260200160002060008573ffffffffffffffffffffffffffffffffffffffff1673ffffffffffffffffffffffffffffffffffffffff16815260200190815260200160002054905082811015610f93576040517f08c379a0000000000000000000000000000000000000000000000000000000008152600401610f8a90611ecf565b60405180910390fd5b610fa7610f9e6111aa565b858584036111b2565b600191505092915050565b6000610fc6610fbf6111aa565b848461137d565b6001905092915050565b601e81565b60075481565b6104e281565b6103e881565b6000600160008473ffffffffffffffffffffffffffffffffffffffff1673ffffffffffffffffffffffffffffffffffffffff16815260200190815260200160002060008373ffffffffffffffffffffffffffffffffffffffff1673ffffffffffffffffffffffffffffffffffffffff16815260200190815260200160002054905092915050565b6101f481565b600a5481565b6110826111aa565b73ffffffffffffffffffffffffffffffffffffffff166110a0610994565b73ffffffffffffffffffffffffffffffffffffffff16146110f6576040517f08c379a00000000000000000000000000000000000000000000000000000000081526004016110ed90611dab565b60405180910390fd5b600073ffffffffffffffffffffffffffffffffffffffff168173ffffffffffffffffffffffffffffffffffffffff161415611166576040517f08c379a000000000000000000000000000000000000000000000000000000000815260040161115d90611f61565b60405180910390fd5b61116f816117d5565b50565b600e5481565b6101f481565b6000818361118c9190611f81565b905092915050565b600081836111a2919061200a565b905092915050565b600033905090565b600073ffffffffffffffffffffffffffffffffffffffff168373ffffffffffffffffffffffffffffffffffffffff161415611222576040517f08c379a0000000000000000000000000000000000000000000000000000000008152600401611219906120ad565b60405180910390fd5b600073ffffffffffffffffffffffffffffffffffffffff168273ffffffffffffffffffffffffffffffffffffffff161415611292576040517f08c379a00000000000000000000000000000000000000000000000000000000081526004016112899061213f565b60405180910390fd5b80600160008573ffffffffffffffffffffffffffffffffffffffff1673ffffffffffffffffffffffffffffffffffffffff16815260200190815260200160002060008473ffffffffffffffffffffffffffffffffffffffff1673ffffffffffffffffffffffffffffffffffffffff168152602001908152602001600020819055508173ffffffffffffffffffffffffffffffffffffffff168373ffffffffffffffffffffffffffffffffffffffff167f8c5be1e5ebec7d5bd14f71427d1e84f3dd0314c0f7b2291e5b200ac8c7c3b9258360405161137091906118be565b60405180910390a3505050565b600073ffffffffffffffffffffffffffffffffffffffff168373ffffffffffffffffffffffffffffffffffffffff1614156113ed576040517f08c379a00000000000000000000000000000000000000000000000000000000081526004016113e4906121d1565b60405180910390fd5b600073ffffffffffffffffffffffffffffffffffffffff168273ffffffffffffffffffffffffffffffffffffffff16141561145d576040517f08c379a000000000000000000000000000000000000000000000000000000000815260040161145490612263565b60405180910390fd5b61146883838361189b565b60008060008573ffffffffffffffffffffffffffffffffffffffff1673ffffffffffffffffffffffffffffffffffffffff168152602001908152602001600020549050818110156114ee576040517f08c379a00000000000000000000000000000000000000000000000000000000081526004016114e5906122f5565b60405180910390fd5b8181036000808673ffffffffffffffffffffffffffffffffffffffff1673ffffffffffffffffffffffffffffffffffffffff16815260200190815260200160002081905550816000808573ffffffffffffffffffffffffffffffffffffffff1673ffffffffffffffffffffffffffffffffffffffff16815260200190815260200160002060008282546115819190611d09565b925050819055508273ffffffffffffffffffffffffffffffffffffffff168473ffffffffffffffffffffffffffffffffffffffff167fddf252ad1be2c89b69c2b068fc378daa952ba7f163c4a11628f55a4df523b3ef846040516115e591906118be565b60405180910390a36115f88484846118a0565b50505050565b600073ffffffffffffffffffffffffffffffffffffffff168273ffffffffffffffffffffffffffffffffffffffff16141561166e576040517f08c379a000000000000000000000000000000000000000000000000000000000815260040161166590612387565b60405180910390fd5b61167a8260008361189b565b60008060008473ffffffffffffffffffffffffffffffffffffffff1673ffffffffffffffffffffffffffffffffffffffff16815260200190815260200160002054905081811015611700576040517f08c379a00000000000000000000000000000000000000000000000000000000081526004016116f790612419565b60405180910390fd5b8181036000808573ffffffffffffffffffffffffffffffffffffffff1673ffffffffffffffffffffffffffffffffffffffff1681526020019081526020016000208190555081600260008282546117579190612439565b92505081905550600073ffffffffffffffffffffffffffffffffffffffff168373ffffffffffffffffffffffffffffffffffffffff167fddf252ad1be2c89b69c2b068fc378daa952ba7f163c4a11628f55a4df523b3ef846040516117bc91906118be565b60405180910390a36117d0836000846118a0565b505050565b6000600560009054906101000a900473ffffffffffffffffffffffffffffffffffffffff16905081600560006101000a81548173ffffffffffffffffffffffffffffffffffffffff021916908373ffffffffffffffffffffffffffffffffffffffff1602179055508173ffffffffffffffffffffffffffffffffffffffff168173ffffffffffffffffffffffffffffffffffffffff167f8be0079c531659141344cd1fd0a4f28419497f9722a3daafe3b4186f6b6457e060405160405180910390a35050565b505050565b505050565b6000819050919050565b6118b8816118a5565b82525050565b60006020820190506118d360008301846118af565b92915050565b600081519050919050565b600082825260208201905092915050565b60005b838110156119135780820151818401526020810190506118f8565b83811115611922576000848401525b50505050565b6000601f19601f8301169050919050565b6000611944826118d9565b61194e81856118e4565b935061195e8185602086016118f5565b61196781611928565b840191505092915050565b6000602082019050818103600083015261198c8184611939565b905092915050565b600080fd5b600073ffffffffffffffffffffffffffffffffffffffff82169050919050565b60006119c482611999565b9050919050565b6119d4816119b9565b81146119df57600080fd5b50565b6000813590506119f1816119cb565b92915050565b611a00816118a5565b8114611a0b57600080fd5b50565b600081359050611a1d816119f7565b92915050565b60008060408385031215611a3a57611a39611994565b5b6000611a48858286016119e2565b9250506020611a5985828601611a0e565b9150509250929050565b60008115159050919050565b611a7881611a63565b82525050565b6000602082019050611a936000830184611a6f565b92915050565b600080600060608486031215611ab257611ab1611994565b5b6000611ac0868287016119e2565b9350506020611ad1868287016119e2565b9250506040611ae286828701611a0e565b9150509250925092565b600060ff82169050919050565b611b0281611aec565b82525050565b6000602082019050611b1d6000830184611af9565b92915050565b600060208284031215611b3957611b38611994565b5b6000611b4784828501611a0e565b91505092915050565b600060208284031215611b6657611b65611994565b5b6000611b74848285016119e2565b91505092915050565b611b86816119b9565b82525050565b6000602082019050611ba16000830184611b7d565b92915050565b60008060408385031215611bbe57611bbd611994565b5b6000611bcc858286016119e2565b9250506020611bdd858286016119e2565b9150509250929050565b7f4e487b7100000000000000000000000000000000000000000000000000000000600052602260045260246000fd5b60006002820490506001821680611c2e57607f821691505b60208210811415611c4257611c41611be7565b5b50919050565b7f45524332303a207472616e7366657220616d6f756e742065786365656473206160008201527f6c6c6f77616e6365000000000000000000000000000000000000000000000000602082015250565b6000611ca46028836118e4565b9150611caf82611c48565b604082019050919050565b60006020820190508181036000830152611cd381611c97565b9050919050565b7f4e487b7100000000000000000000000000000000000000000000000000000000600052601160045260246000fd5b6000611d14826118a5565b9150611d1f836118a5565b9250827fffffffffffffffffffffffffffffffffffffffffffffffffffffffffffffffff03821115611d5457611d53611cda565b5b828201905092915050565b7f4f776e61626c653a2063616c6c6572206973206e6f7420746865206f776e6572600082015250565b6000611d956020836118e4565b9150611da082611d5f565b602082019050919050565b60006020820190508181036000830152611dc481611d88565b9050919050565b7f45524332303a206275726e20616d6f756e74206578636565647320616c6c6f7760008201527f616e636500000000000000000000000000000000000000000000000000000000602082015250565b6000611e276024836118e4565b9150611e3282611dcb565b604082019050919050565b60006020820190508181036000830152611e5681611e1a565b9050919050565b7f45524332303a2064656372656173656420616c6c6f77616e63652062656c6f7760008201527f207a65726f000000000000000000000000000000000000000000000000000000602082015250565b6000611eb96025836118e4565b9150611ec482611e5d565b604082019050919050565b60006020820190508181036000830152611ee881611eac565b9050919050565b7f4f776e61626c653a206e6577206f776e657220697320746865207a65726f206160008201527f6464726573730000000000000000000000000000000000000000000000000000602082015250565b6000611f4b6026836118e4565b9150611f5682611eef565b604082019050919050565b60006020820190508181036000830152611f7a81611f3e565b9050919050565b6000611f8c826118a5565b9150611f97836118a5565b9250817fffffffffffffffffffffffffffffffffffffffffffffffffffffffffffffffff0483118215151615611fd057611fcf611cda565b5b828202905092915050565b7f4e487b7100000000000000000000000000000000000000000000000000000000600052601260045260246000fd5b6000612015826118a5565b9150612020836118a5565b9250826120305761202f611fdb565b5b828204905092915050565b7f45524332303a20617070726f76652066726f6d20746865207a65726f2061646460008201527f7265737300000000000000000000000000000000000000000000000000000000602082015250565b60006120976024836118e4565b91506120a28261203b565b604082019050919050565b600060208201905081810360008301526120c68161208a565b9050919050565b7f45524332303a20617070726f766520746f20746865207a65726f20616464726560008201527f7373000000000000000000000000000000000000000000000000000000000000602082015250565b60006121296022836118e4565b9150612134826120cd565b604082019050919050565b600060208201905081810360008301526121588161211c565b9050919050565b7f45524332303a207472616e736665722066726f6d20746865207a65726f20616460008201527f6472657373000000000000000000000000000000000000000000000000000000602082015250565b60006121bb6025836118e4565b91506121c68261215f565b604082019050919050565b600060208201905081810360008301526121ea816121ae565b9050919050565b7f45524332303a207472616e7366657220746f20746865207a65726f206164647260008201527f6573730000000000000000000000000000000000000000000000000000000000602082015250565b600061224d6023836118e4565b9150612258826121f1565b604082019050919050565b6000602082019050818103600083015261227c81612240565b9050919050565b7f45524332303a207472616e7366657220616d6f756e742065786365656473206260008201527f616c616e63650000000000000000000000000000000000000000000000000000602082015250565b60006122df6026836118e4565b91506122ea82612283565b604082019050919050565b6000602082019050818103600083015261230e816122d2565b9050919050565b7f45524332303a206275726e2066726f6d20746865207a65726f2061646472657360008201527f7300000000000000000000000000000000000000000000000000000000000000602082015250565b60006123716021836118e4565b915061237c82612315565b604082019050919050565b600060208201905081810360008301526123a081612364565b9050919050565b7f45524332303a206275726e20616d6f756e7420657863656564732062616c616e60008201527f6365000000000000000000000000000000000000000000000000000000000000602082015250565b60006124036022836118e4565b915061240e826123a7565b604082019050919050565b60006020820190508181036000830152612432816123f6565b9050919050565b6000612444826118a5565b915061244f836118a5565b92508282101561246257612461611cda565b5b82820390509291505056fea2646970667358221220f54ec5ada3d59adb3c57b393ec1f677d8b85e802633b50a3c3056a375189741b64736f6c634300080a0033",
	"immutableReferences": {},
	"source": "// SPDX-License-Identifier: MIT\r\npragma solidity >=0.4.21 <0.9.0;\r\n\r\nimport \"@openzeppelin/contracts/token/ERC20/utils/SafeERC20.sol\";\r\nimport \"@openzeppelin/contracts/token/ERC20/extensions/ERC20Burnable.sol\";\r\nimport \"@openzeppelin/contracts/utils/math/SafeMath.sol\";\r\nimport \"@openzeppelin/contracts/access/Ownable.sol\";\r\nimport \"@openzeppelin/contracts/utils/Context.sol\";\r\nimport \"@openzeppelin/contracts/utils/Address.sol\";\r\n\r\ncontract BSCMemepad is ERC20Burnable, Ownable {\r\n    using SafeMath for uint256;\r\n\r\n    uint256 private constant initialSupply = 90e6 * 10**18; //90 million\r\n    //$0.1 = 10 cents\r\n    uint256 public constant seedPrice = 10;\r\n    //$0.3 = 20 cents\r\n    uint256 public constant privatePrice = 20;\r\n    //$0.3 = 30 cents\r\n    uint256 public constant publicPrice = 30;\r\n    //7.5%\r\n    uint256 public constant seedTokenPercentage = 750;\r\n    //20%\r\n    uint256 public constant privateSalePercentage = 2000;\r\n    //12.5%\r\n    uint256 public constant publicSalePercentage = 1250;\r\n    //15%\r\n    uint256 public constant liquidityPercentage = 1500;\r\n    //10%\r\n    uint256 public constant teamPercentage = 1000;\r\n    //5%\r\n    uint256 public constant partnersPercentage = 500;\r\n    //20%\r\n    uint256 public constant stakingPercentage = 2000;\r\n    //5%\r\n    uint256 public constant marketingPercentage = 500;\r\n    //5%\r\n    uint256 public constant reserveFundPercentage = 500;\r\n    uint256 public seedToken;\r\n    uint256 public privateSaleToken;\r\n    uint256 public publicSaleToken;\r\n    uint256 public liquidityToken;\r\n    uint256 public teamToken;\r\n    uint256 public marketingToken;\r\n    uint256 public partnersToken;\r\n    uint256 public stakingToken;\r\n    uint256 public reserveToken;\r\n    uint256 public constant percentageDivider = 10000;\r\n\r\n    constructor(address _user) public ERC20(\"BSCMemepad\", \"BSCMPAD\") {\r\n        seedToken = (initialSupply.mul(seedTokenPercentage)).div(percentageDivider);\r\n        privateSaleToken = (initialSupply.mul(privateSalePercentage)).div(percentageDivider);\r\n        publicSaleToken = (initialSupply.mul(publicSalePercentage)).div(percentageDivider);\r\n        liquidityToken = (initialSupply.mul(liquidityPercentage)).div(percentageDivider);\r\n        teamToken = (initialSupply.mul(teamPercentage)).div(percentageDivider);\r\n        marketingToken = (initialSupply.mul(marketingPercentage)).div(percentageDivider);\r\n        partnersToken = (initialSupply.mul(partnersPercentage)).div(percentageDivider);\r\n        stakingToken = (initialSupply.mul(stakingPercentage)).div(percentageDivider);\r\n        reserveToken = (initialSupply.mul(reserveFundPercentage)).div(percentageDivider);\r\n        _mint(_user, initialSupply);\r\n    }\r\n\r\n    receive() external payable {\r\n        payable(owner()).transfer(msg.value);\r\n    }\r\n\r\n    function fallabck() public payable {\r\n        payable(owner()).transfer(getBalance());\r\n    }\r\n\r\n    function getBalance() public view returns (uint256) {\r\n        return address(this).balance;\r\n    }\r\n}",
	"sourcePath": "C:\\Users\\rodri\\web3_projects\\deploy-staking\\contracts\\StakeBSCM.sol",
	"compiler": {
		"name": "solc",
		"version": "0.8.10+commit.fc410830.Emscripten.clang"
	},
	"schemaVersion": "3.4.3",
	"updatedAt": "2021-11-27T09:30:38.213Z",
	"networkType": "ethereum",
	"devdoc": {
		"kind": "dev",
		"methods": {
			"allowance(address,address)": {
				"details": "See {IERC20-allowance}."
			},
			"approve(address,uint256)": {
				"details": "See {IERC20-approve}. Requirements: - `spender` cannot be the zero address."
			},
			"balanceOf(address)": {
				"details": "See {IERC20-balanceOf}."
			},
			"burn(uint256)": {
				"details": "Destroys `amount` tokens from the caller. See {ERC20-_burn}."
			},
			"burnFrom(address,uint256)": {
				"details": "Destroys `amount` tokens from `account`, deducting from the caller's allowance. See {ERC20-_burn} and {ERC20-allowance}. Requirements: - the caller must have allowance for ``accounts``'s tokens of at least `amount`."
			},
			"decimals()": {
				"details": "Returns the number of decimals used to get its user representation. For example, if `decimals` equals `2`, a balance of `505` tokens should be displayed to a user as `5.05` (`505 / 10 ** 2`). Tokens usually opt for a value of 18, imitating the relationship between Ether and Wei. This is the value {ERC20} uses, unless this function is overridden; NOTE: This information is only used for _display_ purposes: it in no way affects any of the arithmetic of the contract, including {IERC20-balanceOf} and {IERC20-transfer}."
			},
			"decreaseAllowance(address,uint256)": {
				"details": "Atomically decreases the allowance granted to `spender` by the caller. This is an alternative to {approve} that can be used as a mitigation for problems described in {IERC20-approve}. Emits an {Approval} event indicating the updated allowance. Requirements: - `spender` cannot be the zero address. - `spender` must have allowance for the caller of at least `subtractedValue`."
			},
			"increaseAllowance(address,uint256)": {
				"details": "Atomically increases the allowance granted to `spender` by the caller. This is an alternative to {approve} that can be used as a mitigation for problems described in {IERC20-approve}. Emits an {Approval} event indicating the updated allowance. Requirements: - `spender` cannot be the zero address."
			},
			"name()": {
				"details": "Returns the name of the token."
			},
			"owner()": {
				"details": "Returns the address of the current owner."
			},
			"renounceOwnership()": {
				"details": "Leaves the contract without owner. It will not be possible to call `onlyOwner` functions anymore. Can only be called by the current owner. NOTE: Renouncing ownership will leave the contract without an owner, thereby removing any functionality that is only available to the owner."
			},
			"symbol()": {
				"details": "Returns the symbol of the token, usually a shorter version of the name."
			},
			"totalSupply()": {
				"details": "See {IERC20-totalSupply}."
			},
			"transfer(address,uint256)": {
				"details": "See {IERC20-transfer}. Requirements: - `recipient` cannot be the zero address. - the caller must have a balance of at least `amount`."
			},
			"transferFrom(address,address,uint256)": {
				"details": "See {IERC20-transferFrom}. Emits an {Approval} event indicating the updated allowance. This is not required by the EIP. See the note at the beginning of {ERC20}. Requirements: - `sender` and `recipient` cannot be the zero address. - `sender` must have a balance of at least `amount`. - the caller must have allowance for ``sender``'s tokens of at least `amount`."
			},
			"transferOwnership(address)": {
				"details": "Transfers ownership of the contract to a new account (`newOwner`). Can only be called by the current owner."
			}
		},
		"version": 1
	},
	"userdoc": {
		"kind": "user",
		"methods": {},
		"version": 1
	}
}