{
  "_format": "hh-sol-artifact-1",
  "contractName": "BSCMemepadPoolFactory",
  "sourceName": "contracts/BSCMemepadPoolFactory.sol",
  "abi": [
    {
      "inputs": [
        {
          "internalType": "address",
          "name": "bscmemepadInfoAddress",
          "type": "address"
        },
        {
          "internalType": "address",
          "name": "_platformToken",
          "type": "address"
        }
      ],
      "stateMutability": "nonpayable",
      "type": "constructor"
    },
    {
      "anonymous": false,
      "inputs": [
        {
          "indexed": true,
          "internalType": "address",
          "name": "previousOwner",
          "type": "address"
        },
        {
          "indexed": true,
          "internalType": "address",
          "name": "newOwner",
          "type": "address"
        }
      ],
      "name": "OwnershipTransferred",
      "type": "event"
    },
    {
      "anonymous": false,
      "inputs": [
        {
          "indexed": true,
          "internalType": "uint256",
          "name": "bscmemepadId",
          "type": "uint256"
        },
        {
          "indexed": false,
          "internalType": "uint256",
          "name": "presaleDbID",
          "type": "uint256"
        },
        {
          "indexed": true,
          "internalType": "address",
          "name": "_token",
          "type": "address"
        },
        {
          "indexed": true,
          "internalType": "address",
          "name": "_currency",
          "type": "address"
        },
        {
          "indexed": false,
          "internalType": "address",
          "name": "pool",
          "type": "address"
        },
        {
          "indexed": false,
          "internalType": "address",
          "name": "creator",
          "type": "address"
        }
      ],
      "name": "PoolCreated",
      "type": "event"
    },
    {
      "inputs": [],
      "name": "bscmemepadInfo",
      "outputs": [
        {
          "internalType": "contract BSCMemepadInvestmentsInfo",
          "name": "",
          "type": "address"
        }
      ],
      "stateMutability": "view",
      "type": "function"
    },
    {
      "inputs": [
        {
          "components": [
            {
              "internalType": "address",
              "name": "_token",
              "type": "address"
            },
            {
              "internalType": "address",
              "name": "_currency",
              "type": "address"
            },
            {
              "internalType": "uint256",
              "name": "_round1Start",
              "type": "uint256"
            },
            {
              "internalType": "uint256",
              "name": "_round1End",
              "type": "uint256"
            },
            {
              "internalType": "uint256",
              "name": "_round2Start",
              "type": "uint256"
            },
            {
              "internalType": "uint256",
              "name": "_round2End",
              "type": "uint256"
            },
            {
              "internalType": "uint256",
              "name": "_releaseTime",
              "type": "uint256"
            },
            {
              "internalType": "uint256",
              "name": "_price",
              "type": "uint256"
            },
            {
              "internalType": "uint256",
              "name": "_totalAmount",
              "type": "uint256"
            },
            {
              "internalType": "uint256",
              "name": "_maxAmountThatCanBeInvestedInTier1",
              "type": "uint256"
            },
            {
              "internalType": "uint256",
              "name": "_maxAmountThatCanBeInvestedInTier2",
              "type": "uint256"
            },
            {
              "internalType": "uint256",
              "name": "_maxAmountThatCanBeInvestedInTier3",
              "type": "uint256"
            },
            {
              "internalType": "uint256",
              "name": "_maxAmountThatCanBeInvestedInTier4",
              "type": "uint256"
            },
            {
              "internalType": "uint256",
              "name": "_presaleProjectID",
              "type": "uint256"
            },
            {
              "internalType": "address[]",
              "name": "_whitelistedAddressesTier1",
              "type": "address[]"
            },
            {
              "internalType": "address[]",
              "name": "_whitelistedAddressesTier2",
              "type": "address[]"
            },
            {
              "internalType": "address[]",
              "name": "_whitelistedAddressesTier3",
              "type": "address[]"
            },
            {
              "internalType": "address[]",
              "name": "_whitelistedAddressesTier4",
              "type": "address[]"
            },
            {
              "internalType": "uint256[]",
              "name": "_tiersAllocation",
              "type": "uint256[]"
            }
          ],
          "internalType": "struct BSCMemepadPoolFactory.IDOInfo",
          "name": "poolInfo",
          "type": "tuple"
        }
      ],
      "name": "createPoolPublic",
      "outputs": [],
      "stateMutability": "nonpayable",
      "type": "function"
    },
    {
      "inputs": [],
      "name": "nextPoolId",
      "outputs": [
        {
          "internalType": "uint256",
          "name": "",
          "type": "uint256"
        }
      ],
      "stateMutability": "view",
      "type": "function"
    },
    {
      "inputs": [],
      "name": "owner",
      "outputs": [
        {
          "internalType": "address",
          "name": "",
          "type": "address"
        }
      ],
      "stateMutability": "view",
      "type": "function"
    },
    {
      "inputs": [],
      "name": "platformToken",
      "outputs": [
        {
          "internalType": "contract IERC20",
          "name": "",
          "type": "address"
        }
      ],
      "stateMutability": "view",
      "type": "function"
    },
    {
      "inputs": [
        {
          "internalType": "uint256",
          "name": "",
          "type": "uint256"
        }
      ],
      "name": "poolList",
      "outputs": [
        {
          "internalType": "address",
          "name": "contractAddr",
          "type": "address"
        },
        {
          "internalType": "address",
          "name": "currency",
          "type": "address"
        },
        {
          "internalType": "address",
          "name": "token",
          "type": "address"
        }
      ],
      "stateMutability": "view",
      "type": "function"
    },
    {
      "inputs": [],
      "name": "renounceOwnership",
      "outputs": [],
      "stateMutability": "nonpayable",
      "type": "function"
    },
    {
      "inputs": [
        {
          "internalType": "address",
          "name": "newOwner",
          "type": "address"
        }
      ],
      "name": "transferOwnership",
      "outputs": [],
      "stateMutability": "nonpayable",
      "type": "function"
    }
  ],
  "bytecode": "0x60a060405234801561001057600080fd5b506040516200369f3803806200369f833981016040819052610031916100dc565b600061003b6100bc565b600080546001600160a01b0319166001600160a01b0383169081178255604051929350917f8be0079c531659141344cd1fd0a4f28419497f9722a3daafe3b4186f6b6457e0908290a35060609190911b6001600160601b031916608052600380546001600160a01b0319166001600160a01b0390921691909117905561010e565b3390565b80516001600160a01b03811681146100d757600080fd5b919050565b600080604083850312156100ee578182fd5b6100f7836100c0565b9150610105602084016100c0565b90509250929050565b60805160601c61356e62000131600039806106735280610a37525061356e6000f3fe60806040523480156200001157600080fd5b5060043610620000945760003560e01c8063d1b812cd1162000063578063d1b812cd1462000108578063d5ac89ca1462000112578063f2fde38b1462000129578063ff0996de14620001405762000094565b806318e5613114620000995780632a48235b14620000bb578063715018a614620000e35780638da5cb5b14620000ef575b600080fd5b620000a36200014a565b604051620000b2919062000fb5565b60405180910390f35b620000d2620000cc36600462000c80565b62000150565b604051620000b29392919062000cea565b620000ed62000193565b005b620000f962000263565b604051620000b2919062000cb2565b620000f962000272565b620000ed6200012336600462000c44565b62000281565b620000ed6200013a36600462000c05565b6200090d565b620000f962000a35565b60015481565b600281815481106200016157600080fd5b60009182526020909120600390910201805460018201546002909201546001600160a01b039182169350918116911683565b6200019d62000a59565b6001600160a01b0316620001b062000263565b6001600160a01b0316146200020c576040805162461bcd60e51b815260206004820181905260248201527f4f776e61626c653a2063616c6c6572206973206e6f7420746865206f776e6572604482015290519081900360640190fd5b600080546040516001600160a01b03909116907f8be0079c531659141344cd1fd0a4f28419497f9722a3daafe3b4186f6b6457e0908390a36000805473ffffffffffffffffffffffffffffffffffffffff19169055565b6000546001600160a01b031690565b6003546001600160a01b031681565b6200028b62000a59565b6001600160a01b03166200029e62000263565b6001600160a01b031614620002fa576040805162461bcd60e51b815260206004820181905260248201527f4f776e61626c653a2063616c6c6572206973206e6f7420746865206f776e6572604482015290519081900360640190fd5b6200030c604082016020830162000c05565b6001600160a01b031662000324602083018362000c05565b6001600160a01b03161415620003575760405162461bcd60e51b81526004016200034e9062000e9e565b60405180910390fd5b600062000368602083018362000c05565b6001600160a01b03161415620003925760405162461bcd60e51b81526004016200034e9062000e41565b6000620003a6604083016020840162000c05565b6001600160a01b03161415620003d05760405162461bcd60e51b81526004016200034e9062000f58565b6000805b620003e461024084018462000fdd565b90508110156200042f57620004246200040261024085018562000fdd565b838181106200040d57fe5b905060200201358362000a5d90919063ffffffff16565b9150600101620003d4565b508082610100013514620004575760405162461bcd60e51b81526004016200034e9062000efb565b600062000468602084018462000c05565b905060006200047b602085018562000c05565b6200048d604086016020870162000c05565b8560400135866060013587608001358860a001358960c001358a60e001358b61010001358c61012001358d61014001358e61016001358f6101800135604051620004d79062000bda565b620004ef9d9c9b9a9998979695949392919062000d0d565b604051809103906000f0801580156200050c573d6000803e3d6000fd5b506040516323b872dd60e01b81529091506001600160a01b038316906323b872dd906200054790339085906101008a01359060040162000cc6565b602060405180830381600087803b1580156200056257600080fd5b505af115801562000577573d6000803e3d6000fd5b505050506040513d601f19601f820116820180604052508101906200059d919062000c22565b5060026040518060600160405280836001600160a01b03168152602001866020016020810190620005cf919062000c05565b6001600160a01b03168152602090810190620005ee9088018862000c05565b6001600160a01b03908116909152825460018181018555600094855260208086208551600390940201805493851673ffffffffffffffffffffffffffffffffffffffff19948516178155908501519181018054928516928416929092179091556040938401516002909101805491841691909216179055905163171794c760e21b81527f000000000000000000000000000000000000000000000000000000000000000090911690635c5e531c90620006b39085906101a08a01359060040162000d78565b602060405180830381600087803b158015620006ce57600080fd5b505af1158015620006e3573d6000803e3d6000fd5b505050506040513d601f19601f8201168201806040525081019062000709919062000c99565b6003546040516325633e7360e11b81529192506001600160a01b0380851692634ac67ce6926200073e92169060040162000cb2565b602060405180830381600087803b1580156200075957600080fd5b505af11580156200076e573d6000803e3d6000fd5b505050506040513d601f19601f8201168201806040525081019062000794919062000c22565b50620007b282620007aa6101c088018862000fdd565b600162000abf565b620007cf82620007c76101e088018862000fdd565b600262000abf565b620007ec82620007e461020088018862000fdd565b600362000abf565b62000809826200080161022088018862000fdd565b600462000abf565b62000824826200081e61024088018862000fdd565b62000b4e565b816001600160a01b031663f2fde38b6200083d62000263565b6040518263ffffffff1660e01b81526004016200085b919062000cb2565b600060405180830381600087803b1580156200087657600080fd5b505af11580156200088b573d6000803e3d6000fd5b50620008a292505050604086016020870162000c05565b6001600160a01b0316620008ba602087018762000c05565b6001600160a01b0316827f7af733a2e6390ad7cb674c8702248b4168d8d414307db931e1881d8b8626b337886101a001358633604051620008fe9392919062000fbe565b60405180910390a45050505050565b6200091762000a59565b6001600160a01b03166200092a62000263565b6001600160a01b03161462000986576040805162461bcd60e51b815260206004820181905260248201527f4f776e61626c653a2063616c6c6572206973206e6f7420746865206f776e6572604482015290519081900360640190fd5b6001600160a01b038116620009cd5760405162461bcd60e51b81526004018080602001828103825260268152602001806200353c6026913960400191505060405180910390fd5b600080546040516001600160a01b03808516939216917f8be0079c531659141344cd1fd0a4f28419497f9722a3daafe3b4186f6b6457e091a36000805473ffffffffffffffffffffffffffffffffffffffff19166001600160a01b0392909216919091179055565b7f000000000000000000000000000000000000000000000000000000000000000081565b3390565b60008282018381101562000ab8576040805162461bcd60e51b815260206004820152601b60248201527f536166654d6174683a206164646974696f6e206f766572666c6f770000000000604482015290519081900360640190fd5b9392505050565b60405163ab383fa960e01b81526001600160a01b0385169063ab383fa99062000af19086908690869060040162000d91565b602060405180830381600087803b15801562000b0c57600080fd5b505af115801562000b21573d6000803e3d6000fd5b505050506040513d601f19601f8201168201806040525081019062000b47919062000c22565b5050505050565b604051633b7ed50560e01b81526001600160a01b03841690633b7ed5059062000b7e908590859060040162000ded565b602060405180830381600087803b15801562000b9957600080fd5b505af115801562000bae573d6000803e3d6000fd5b505050506040513d601f19601f8201168201806040525081019062000bd4919062000c22565b50505050565b61250d806200102f83390190565b80356001600160a01b038116811462000c0057600080fd5b919050565b60006020828403121562000c17578081fd5b62000ab88262000be8565b60006020828403121562000c34578081fd5b8151801515811462000ab8578182fd5b60006020828403121562000c56578081fd5b813567ffffffffffffffff81111562000c6d578182fd5b8201610260818503121562000ab8578182fd5b60006020828403121562000c92578081fd5b5035919050565b60006020828403121562000cab578081fd5b5051919050565b6001600160a01b0391909116815260200190565b6001600160a01b039384168152919092166020820152604081019190915260600190565b6001600160a01b0393841681529183166020830152909116604082015260600190565b6001600160a01b039d8e1681529b909c1660208c015260408b019990995260608a0197909752608089019590955260a088019390935260c087019190915260e08601526101008501526101208401526101408301526101608201526101808101919091526101a00190565b6001600160a01b03929092168252602082015260400190565b6040808252810183905260008460608301825b8681101562000dd6576001600160a01b0362000dc08462000be8565b1682526020928301929091019060010162000da4565b50809250505060ff83166020830152949350505050565b6000602082528260208301527f07ffffffffffffffffffffffffffffffffffffffffffffffffffffffffffffff83111562000e26578081fd5b60208302808560408501379190910160400190815292915050565b60208082526025908201527f506f6f6c496e666f20746f6b656e2063616e6e6f74206265206164647265737360408201527f207a65726f000000000000000000000000000000000000000000000000000000606082015260800190565b60208082526026908201527f43757272656e637920616e6420546f6b656e2063616e206e6f7420626520746860408201527f652073616d650000000000000000000000000000000000000000000000000000606082015260800190565b6020808252603a908201527f506f6f6c496e666f20746f74616c416d6f756e7420262073756d4f66416d744f60408201527f66416c6c5469657273206d757374206265207468652073616d65000000000000606082015260800190565b60208082526028908201527f506f6f6c496e666f2063757272656e63792063616e6e6f74206265206164647260408201527f657373207a65726f000000000000000000000000000000000000000000000000606082015260800190565b90815260200190565b9283526001600160a01b03918216602084015216604082015260600190565b6000808335601e1984360301811262000ff4578283fd5b83018035915067ffffffffffffffff8211156200100f578283fd5b60209081019250810236038213156200102757600080fd5b925092905056fe60806040523480156200001157600080fd5b506040516200250d3803806200250d83398181016040526101a08110156200003857600080fd5b508051602082015160408301516060840151608085015160a086015160c087015160e08801516101008901516101208a01516101408b01516101608c0151610180909c01519a9b999a989997989697959694959394929391929091906000620000a062000384565b600080546001600160a01b0319166001600160a01b0383169081178255604051929350917f8be0079c531659141344cd1fd0a4f28419497f9722a3daafe3b4186f6b6457e0908290a350600180556001600160a01b038d16620001355760405162461bcd60e51b8152600401808060200182810382526024815260200180620024c66024913960400191505060405180910390fd5b6001600160a01b038c166200017c5760405162461bcd60e51b81526004018080602001828103825260278152602001806200247c6027913960400191505060405180910390fd5b898b10620001bc5760405162461bcd60e51b8152600401808060200182810382526023815260200180620024ea6023913960400191505060405180910390fd5b888a1115620001fd5760405162461bcd60e51b8152600401808060200182810382526023815260200180620024596023913960400191505060405180910390fd5b8789106200023d5760405162461bcd60e51b8152600401808060200182810382526023815260200180620024a36023913960400191505060405180910390fd5b6000851162000293576040805162461bcd60e51b815260206004820152601860248201527f546f74616c20616d6f756e74206d757374206265203e20300000000000000000604482015290519081900360640190fd5b600380546001600160a01b039e8f166001600160a01b031991821617909155600480549d909e169c169b909b178c55600799909955600897909755600995909555600a93909355600f91909155600b55600d819055600c5560166020527f4c4dc693d7db52f85fe052106f4b4b920e78e8ef37dee82878a60ab8585faf49557fcaff291fe014adc6b72a172705750b4cabe8f8667664d2924a166caab2885648557ff06d282f967055cb1eee17e04aa005b9682a620f4bbcfaee55ba78607a3d87ae556000919091527fec061709de2491458f4c981032059d7d19b0e55f45018bac6b3e660bdc959a595562000388565b3390565b6120c180620003986000396000f3fe608060405234801561001057600080fd5b50600436106101f05760003560e01c80638da5cb5b1161010f578063d0ffc9b8116100a2578063e5a6b10f11610071578063e5a6b10f14610620578063ee12c21614610628578063f2fde38b14610680578063fc0c546a146106a6576101f0565b8063d0ffc9b8146105eb578063d1b812cd146105f3578063d96a094a146105fb578063db2e21bc14610618576101f0565b8063b91d4001116100de578063b91d400114610565578063ba69ce331461056d578063c6b9f06a14610593578063c8a13189146105e3576101f0565b80638da5cb5b146103f0578063a035b1fe14610414578063ab383fa91461041c578063b2f5a54c146104c4576101f0565b80634ac67ce61161018757806369bb4dc21161015657806369bb4dc2146103d0578063715018a6146103d857806377445ba6146103e0578063847d34fb146103e8576101f0565b80634ac67ce61461034657806354d89c921461036c5780635a486f9b14610374578063644a986f146103b0576101f0565b80633b7ed505116101c35780633b7ed505146102895780633ccfd60b1461032c57806348c54b9d146103365780634ac0ab1c1461033e576101f0565b80631a39d8ef146101f557806325042fe91461020f57806325ca480b146102495780633a6089cf14610269575b600080fd5b6101fd6106ae565b60408051918252519081900360200190f35b6102356004803603602081101561022557600080fd5b50356001600160a01b03166106b4565b604080519115158252519081900360200190f35b6101fd6004803603602081101561025f57600080fd5b503560ff166106c9565b6101fd6004803603602081101561027f57600080fd5b503560ff166106db565b6102356004803603602081101561029f57600080fd5b8101906020810181356401000000008111156102ba57600080fd5b8201836020820111156102cc57600080fd5b803590602001918460208302840111640100000000831117156102ee57600080fd5b9190808060200260200160405190810160405280939291908181526020018383602002808284376000920191909152509295506106ed945050505050565b610334610841565b005b610334610998565b6101fd610bd5565b6102356004803603602081101561035c57600080fd5b50356001600160a01b0316610bdb565b6101fd610c76565b61039a6004803603602081101561038a57600080fd5b50356001600160a01b0316610c7c565b6040805160ff9092168252519081900360200190f35b6101fd600480360360208110156103c657600080fd5b503560ff16610c9a565b6101fd610cac565b610334610cb2565b6101fd610d70565b6101fd610d76565b6103f8610d7c565b604080516001600160a01b039092168252519081900360200190f35b6101fd610d8b565b6102356004803603604081101561043257600080fd5b81019060208101813564010000000081111561044d57600080fd5b82018360208201111561045f57600080fd5b8035906020019184602083028401116401000000008311171561048157600080fd5b9190808060200260200160405190810160405280939291908181526020018383602002808284376000920191909152509295505050903560ff169150610d919050565b6104cc610f53565b604051808060200180602001838103835285818151815260200191508051906020019060200280838360005b838110156105105781810151838201526020016104f8565b50505050905001838103825284818151815260200191508051906020019060200280838360005b8381101561054f578181015183820152602001610537565b5050505090500194505050505060405180910390f35b6101fd61107e565b61039a6004803603602081101561058357600080fd5b50356001600160a01b0316611084565b6105b9600480360360208110156105a957600080fd5b50356001600160a01b0316611099565b604080516001600160a01b0390941684526020840192909252151582820152519081900360600190f35b6101fd6110c7565b6101fd6110cd565b6103f86110d3565b6103346004803603602081101561061157600080fd5b50356110e2565b61033461170a565b6103f861177e565b61063061178d565b60408051602080825283518183015283519192839290830191858101910280838360005b8381101561066c578181015183820152602001610654565b505050509050019250505060405180910390f35b6103346004803603602081101561069657600080fd5b50356001600160a01b03166117ef565b6103f8611903565b600d5481565b60106020526000908152604090205460ff1681565b60166020526000908152604090205481565b60146020526000908152604090205481565b60006106f7611912565b6001600160a01b0316610708610d7c565b6001600160a01b031614610763576040805162461bcd60e51b815260206004820181905260248201527f4f776e61626c653a2063616c6c6572206973206e6f7420746865206f776e6572604482015290519081900360640190fd5b60005b82518160ff161015610838576000838260ff168151811061078357fe5b6020026020010151116107c75760405162461bcd60e51b8152600401808060200182810382526022815260200180611fc96022913960400191505060405180910390fd5b828160ff16815181106107d657fe5b6020026020010151601460008360010160ff1660ff16815260200190815260200160002081905550828160ff168151811061080d57fe5b60209081029190910181015160ff600190930192831660009081526015909252604090912055610766565b50600192915050565b610849611912565b6001600160a01b031661085a610d7c565b6001600160a01b0316146108b5576040805162461bcd60e51b815260206004820181905260248201527f4f776e61626c653a2063616c6c6572206973206e6f7420746865206f776e6572604482015290519081900360640190fd5b600a54421015806108c65750600c54155b610917576040805162461bcd60e51b815260206004820152601960248201527f5075626c69632073616c65206e6f742079657420656e64656400000000000000604482015290519081900360640190fd5b6002600154141561096f576040805162461bcd60e51b815260206004820152601f60248201527f5265656e7472616e637947756172643a207265656e7472616e742063616c6c00604482015290519081900360640190fd5b6002600155600c5415610982576000600c555b61098a611916565b6109926119e0565b60018055565b600f544210156109d95760405162461bcd60e51b8152600401808060200182810382526032815260200180611feb6032913960400191505060405180910390fd5b60026001541415610a31576040805162461bcd60e51b815260206004820152601f60248201527f5265656e7472616e637947756172643a207265656e7472616e742063616c6c00604482015290519081900360640190fd5b600260018190553360009081526006602052604090209081015460ff1615610aa0576040805162461bcd60e51b815260206004820152601160248201527f416c72656164792077697468647261776e000000000000000000000000000000604482015290519081900360640190fd5b6000816001015411610af9576040805162461bcd60e51b815260206004820152600e60248201527f4f6e6c7920696e766573746f7273000000000000000000000000000000000000604482015290519081900360640190fd5b60028101805460ff191660019081179091556003548254918301546040805163a9059cbb60e01b81526001600160a01b039485166004820152602481019290925251929091169163a9059cbb916044808201926020929091908290030181600087803b158015610b6857600080fd5b505af1158015610b7c573d6000803e3d6000fd5b505050506040513d6020811015610b9257600080fd5b50506001810154604080519182525133917f47cee97cb7acd717b3c0aa1435d004cd5b3c8c57d70dbceb4e4458bbd60e39d4919081900360200190a25060018055565b60085481565b6000610be5611912565b6001600160a01b0316610bf6610d7c565b6001600160a01b031614610c51576040805162461bcd60e51b815260206004820181905260248201527f4f776e61626c653a2063616c6c6572206973206e6f7420746865206f776e6572604482015290519081900360640190fd5b50600280546001600160a01b0383166001600160a01b03199091161790556001919050565b60135481565b6001600160a01b031660009081526012602052604090205460ff1690565b60156020526000908152604090205481565b600c5481565b610cba611912565b6001600160a01b0316610ccb610d7c565b6001600160a01b031614610d26576040805162461bcd60e51b815260206004820181905260248201527f4f776e61626c653a2063616c6c6572206973206e6f7420746865206f776e6572604482015290519081900360640190fd5b600080546040516001600160a01b03909116907f8be0079c531659141344cd1fd0a4f28419497f9722a3daafe3b4186f6b6457e0908390a3600080546001600160a01b0319169055565b600e5481565b600a5481565b6000546001600160a01b031690565b600b5481565b6000610d9b611912565b6001600160a01b0316610dac610d7c565b6001600160a01b031614610e07576040805162461bcd60e51b815260206004820181905260248201527f4f776e61626c653a2063616c6c6572206973206e6f7420746865206f776e6572604482015290519081900360640190fd5b60005b8351811015610f475760106000858381518110610e2357fe5b6020908102919091018101516001600160a01b031682528101919091526040016000205460ff161515600114610f3f57600160106000868481518110610e6557fe5b60200260200101516001600160a01b03166001600160a01b0316815260200190815260200160002060006101000a81548160ff0219169083151502179055508260126000868481518110610eb557fe5b60200260200101516001600160a01b03166001600160a01b0316815260200190815260200160002060006101000a81548160ff021916908360ff1602179055506011848281518110610f0357fe5b60209081029190910181015182546001810184556000938452919092200180546001600160a01b0319166001600160a01b039092169190911790555b600101610e0a565b50600190505b92915050565b606080606060135467ffffffffffffffff81118015610f7157600080fd5b50604051908082528060200260200182016040528015610f9b578160200160208202803683370190505b509050606060135467ffffffffffffffff81118015610fb957600080fd5b50604051908082528060200260200182016040528015610fe3578160200160208202803683370190505b50905060005b6013548110156110745760006005828154811061100257fe5b60009182526020909120600290910201805485519192506001600160a01b03169085908490811061102f57fe5b60200260200101906001600160a01b031690816001600160a01b031681525050806001015483838151811061106057fe5b602090810291909101015250600101610fe9565b5090925090509091565b600f5481565b60126020526000908152604090205460ff1681565b6006602052600090815260409020805460018201546002909201546001600160a01b03909116919060ff1683565b60075481565b60095481565b6002546001600160a01b031681565b60075442101580156110f657506008544211155b80611110575060095442101580156111105750600a544211155b611161576040805162461bcd60e51b815260206004820181905260248201527f5075626c69632073616c65206973206e6f742079657420616374697661746564604482015290519081900360640190fd5b600260015414156111b9576040805162461bcd60e51b815260206004820152601f60248201527f5265656e7472616e637947756172643a207265656e7472616e742063616c6c00604482015290519081900360640190fd5b6002600155600c54611212576040805162461bcd60e51b815260206004820152601960248201527f416c6c20746f6b656e7320776572652070757263686173656400000000000000604482015290519081900360640190fd5b60008111611267576040805162461bcd60e51b815260206004820152601260248201527f416d6f756e74206d757374206265203e20300000000000000000000000000000604482015290519081900360640190fd5b600061127233610c7c565b905060008160ff16116112cc576040805162461bcd60e51b815260206004820152601760248201527f596f7520617265206e6f742077686974656c6973746564000000000000000000604482015290519081900360640190fd5b60ff811660009081526015602052604090205460095442106112ed5750600c545b8083111580156112ff5750600c548311155b611350576040805162461bcd60e51b815260206004820152601860248201527f4e6f7420656e6f75676820746f6b656e7320746f206275790000000000000000604482015290519081900360640190fd5b33600090815260066020526040902060085442116114115760ff8316600090815260166020526040902054600182015461138b908290611a75565b8511156113df576040805162461bcd60e51b815260206004820152601260248201527f427579206578636565647320616d6f756e740000000000000000000000000000604482015290519081900360640190fd5b60ff84166000908152601560205260409020546113fc9086611a75565b60ff8516600090815260156020526040902055505b600061143a670de0b6b3a7640000611434600b5488611ad290919063ffffffff16565b90611b32565b60048054604080516370a0823160e01b815233938101939093525192935083926001600160a01b03909116916370a08231916024808301926020929190829003018186803b15801561148b57600080fd5b505afa15801561149f573d6000803e3d6000fd5b505050506040513d60208110156114b557600080fd5b505110156114f45760405162461bcd60e51b81526004018080602001828103825260278152602001806120646027913960400191505060405180910390fd5b600c546115019086611a75565b600c5560045461151c906001600160a01b0316333084611b99565b6001820154611599576040805160608101825233808252602080830189815260008486018181529381526006909252939020915182546001600160a01b0319166001600160a01b03909116178255915160018083019190915591516002909101805460ff1916911515919091179055601380549091019055611622565b6040518060600160405280336001600160a01b031681526020016115ca846001015488611c0e90919063ffffffff16565b81526000602091820181905233815260068252604090819020835181546001600160a01b0319166001600160a01b0390911617815591830151600183015591909101516002909101805460ff19169115159190911790555b600e5461162f9086611c0e565b600e556040805180820182523380825260208083018981526005805460018101825560009190915293517f036b6384b5eca791c62761152d0c79bb0604c104a5fb6f4eb0703f3154bb3db0600290950294850180546001600160a01b0319166001600160a01b03909216919091179055517f036b6384b5eca791c62761152d0c79bb0604c104a5fb6f4eb0703f3154bb3db1909301929092558251848152918201889052825190927f1cbc5ab135991bd2b6a4b034a04aa2aa086dac1371cb9b16b8b5e2ed6b036bed928290030190a2505060018055505050565b611712611912565b6001600160a01b0316611723610d7c565b6001600160a01b031614610917576040805162461bcd60e51b815260206004820181905260248201527f4f776e61626c653a2063616c6c6572206973206e6f7420746865206f776e6572604482015290519081900360640190fd5b6004546001600160a01b031681565b606060118054806020026020016040519081016040528092919081815260200182805480156117e557602002820191906000526020600020905b81546001600160a01b031681526001909101906020018083116117c7575b5050505050905090565b6117f7611912565b6001600160a01b0316611808610d7c565b6001600160a01b031614611863576040805162461bcd60e51b815260206004820181905260248201527f4f776e61626c653a2063616c6c6572206973206e6f7420746865206f776e6572604482015290519081900360640190fd5b6001600160a01b0381166118a85760405162461bcd60e51b8152600401808060200182810382526026815260200180611fa36026913960400191505060405180910390fd5b600080546040516001600160a01b03808516939216917f8be0079c531659141344cd1fd0a4f28419497f9722a3daafe3b4186f6b6457e091a3600080546001600160a01b0319166001600160a01b0392909216919091179055565b6003546001600160a01b031681565b3390565b600354604080516370a0823160e01b815230600482015290516000926001600160a01b0316916370a08231916024808301926020929190829003018186803b15801561196157600080fd5b505afa158015611975573d6000803e3d6000fd5b505050506040513d602081101561198b57600080fd5b50516003549091506119a7906001600160a01b03163383611c68565b60408051828152905133917f884edad9ce6fa2440d8a54cc123490eb96d2768479d49ff9c7366125a9424364919081900360200190a250565b60048054604080516370a0823160e01b81523093810193909352516000926001600160a01b03909216916370a08231916024808301926020929190829003018186803b158015611a2f57600080fd5b505afa158015611a43573d6000803e3d6000fd5b505050506040513d6020811015611a5957600080fd5b50516004549091506119a7906001600160a01b03163383611c68565b600082821115611acc576040805162461bcd60e51b815260206004820152601e60248201527f536166654d6174683a207375627472616374696f6e206f766572666c6f770000604482015290519081900360640190fd5b50900390565b600082611ae157506000610f4d565b82820282848281611aee57fe5b0414611b2b5760405162461bcd60e51b81526004018080602001828103825260218152602001806120436021913960400191505060405180910390fd5b9392505050565b6000808211611b88576040805162461bcd60e51b815260206004820152601a60248201527f536166654d6174683a206469766973696f6e206279207a65726f000000000000604482015290519081900360640190fd5b818381611b9157fe5b049392505050565b604080516001600160a01b0380861660248301528416604482015260648082018490528251808303909101815260849091019091526020810180517bffffffffffffffffffffffffffffffffffffffffffffffffffffffff166323b872dd60e01b179052611c08908590611cd4565b50505050565b600082820183811015611b2b576040805162461bcd60e51b815260206004820152601b60248201527f536166654d6174683a206164646974696f6e206f766572666c6f770000000000604482015290519081900360640190fd5b604080516001600160a01b038416602482015260448082018490528251808303909101815260649091019091526020810180517bffffffffffffffffffffffffffffffffffffffffffffffffffffffff1663a9059cbb60e01b179052611ccf908490611cd4565b505050565b6060611d29826040518060400160405280602081526020017f5361666545524332303a206c6f772d6c6576656c2063616c6c206661696c6564815250856001600160a01b0316611d859092919063ffffffff16565b805190915015611ccf57808060200190516020811015611d4857600080fd5b5051611ccf5760405162461bcd60e51b815260040180806020018281038252602a81526020018061208b602a913960400191505060405180910390fd5b6060611d948484600085611d9c565b949350505050565b606082471015611ddd5760405162461bcd60e51b815260040180806020018281038252602681526020018061201d6026913960400191505060405180910390fd5b611de685611ef8565b611e37576040805162461bcd60e51b815260206004820152601d60248201527f416464726573733a2063616c6c20746f206e6f6e2d636f6e7472616374000000604482015290519081900360640190fd5b60006060866001600160a01b031685876040518082805190602001908083835b60208310611e765780518252601f199092019160209182019101611e57565b6001836020036101000a03801982511681845116808217855250505050505090500191505060006040518083038185875af1925050503d8060008114611ed8576040519150601f19603f3d011682016040523d82523d6000602084013e611edd565b606091505b5091509150611eed828286611efe565b979650505050505050565b3b151590565b60608315611f0d575081611b2b565b825115611f1d5782518084602001fd5b8160405162461bcd60e51b81526004018080602001828103825283818151815260200191508051906020019080838360005b83811015611f67578181015183820152602001611f4f565b50505050905090810190601f168015611f945780820380516001836020036101000a031916815260200191505b509250505060405180910390fdfe4f776e61626c653a206e6577206f776e657220697320746865207a65726f20616464726573735469657220616c6c6f636174696f6e20616d6f756e74206d757374206265203e2030506c65617365207761697420756e74696c2072656c656173652074696d6520666f7220636c61696d696e6720746f6b656e73416464726573733a20696e73756666696369656e742062616c616e636520666f722063616c6c536166654d6174683a206d756c7469706c69636174696f6e206f766572666c6f77496e73756666696369656e742063757272656e63792062616c616e6365206f662063616c6c65725361666545524332303a204552433230206f7065726174696f6e20646964206e6f742073756363656564a164736f6c6343000705000a526f756e643120656e642074696d65203e20526f756e64322073746172742074696d6543757272656e637920616464726573732063616e6e6f742062652061646472657373207a65726f526f756e64312073746172742074696d65203e20526f756e643220656e642074696d65546f6b656e20616464726573732063616e6e6f742062652061646472657373207a65726f526f756e64312073746172742074696d65203e20526f756e643120656e642074696d654f776e61626c653a206e6577206f776e657220697320746865207a65726f2061646472657373a164736f6c6343000705000a",
  "linkReferences": {},
  "deployedLinkReferences": {}
}