{
  "_format": "hh-sol-artifact-1",
  "contractName": "BSCMemepadInvestmentsInfo",
  "sourceName": "contracts/BSCMemepadInvestmentsInfo.sol",
  "abi": [
    {
      "anonymous": false,
      "inputs": [
        {
          "indexed": true,
          "internalType": "address",
          "name": "previousOwner",
          "type": "address"
        },
        {
          "indexed": true,
          "internalType": "address",
          "name": "newOwner",
          "type": "address"
        }
      ],
      "name": "OwnershipTransferred",
      "type": "event"
    },
    {
      "inputs": [
        {
          "internalType": "address",
          "name": "_presale",
          "type": "address"
        },
        {
          "internalType": "uint256",
          "name": "_presaleProjectID",
          "type": "uint256"
        }
      ],
      "name": "addPresaleAddress",
      "outputs": [
        {
          "internalType": "uint256",
          "name": "",
          "type": "uint256"
        }
      ],
      "stateMutability": "nonpayable",
      "type": "function"
    },
    {
      "inputs": [
        {
          "internalType": "address",
          "name": "",
          "type": "address"
        }
      ],
      "name": "alreadyAdded",
      "outputs": [
        {
          "internalType": "bool",
          "name": "",
          "type": "bool"
        }
      ],
      "stateMutability": "view",
      "type": "function"
    },
    {
      "inputs": [
        {
          "internalType": "uint256",
          "name": "bscmemepadId",
          "type": "uint256"
        }
      ],
      "name": "getPresaleAddress",
      "outputs": [
        {
          "internalType": "address",
          "name": "",
          "type": "address"
        }
      ],
      "stateMutability": "view",
      "type": "function"
    },
    {
      "inputs": [
        {
          "internalType": "uint256",
          "name": "bscmemepadDbId",
          "type": "uint256"
        }
      ],
      "name": "getPresaleAddressByDbId",
      "outputs": [
        {
          "internalType": "address",
          "name": "",
          "type": "address"
        }
      ],
      "stateMutability": "view",
      "type": "function"
    },
    {
      "inputs": [],
      "name": "getPresalesCount",
      "outputs": [
        {
          "internalType": "uint256",
          "name": "",
          "type": "uint256"
        }
      ],
      "stateMutability": "view",
      "type": "function"
    },
    {
      "inputs": [],
      "name": "owner",
      "outputs": [
        {
          "internalType": "address",
          "name": "",
          "type": "address"
        }
      ],
      "stateMutability": "view",
      "type": "function"
    },
    {
      "inputs": [
        {
          "internalType": "uint256",
          "name": "",
          "type": "uint256"
        }
      ],
      "name": "presaleAddressByProjectID",
      "outputs": [
        {
          "internalType": "address",
          "name": "",
          "type": "address"
        }
      ],
      "stateMutability": "view",
      "type": "function"
    },
    {
      "inputs": [],
      "name": "renounceOwnership",
      "outputs": [],
      "stateMutability": "nonpayable",
      "type": "function"
    },
    {
      "inputs": [
        {
          "internalType": "address",
          "name": "newOwner",
          "type": "address"
        }
      ],
      "name": "transferOwnership",
      "outputs": [],
      "stateMutability": "nonpayable",
      "type": "function"
    },
    {
      "inputs": [
        {
          "internalType": "uint256",
          "name": "bscmemepadId",
          "type": "uint256"
        }
      ],
      "name": "validBscmemepadId",
      "outputs": [
        {
          "internalType": "bool",
          "name": "",
          "type": "bool"
        }
      ],
      "stateMutability": "view",
      "type": "function"
    }
  ],
  "bytecode": "0x608060405234801561001057600080fd5b50600061001b61006a565b600080546001600160a01b0319166001600160a01b0383169081178255604051929350917f8be0079c531659141344cd1fd0a4f28419497f9722a3daafe3b4186f6b6457e0908290a35061006e565b3390565b6106c28061007d6000396000f3fe608060405234801561001057600080fd5b50600436106100be5760003560e01c80638da5cb5b11610076578063c7fd5bf01161005b578063c7fd5bf014610164578063cd611db114610177578063f2fde38b1461017f576100be565b80638da5cb5b1461014957806399fd92bc14610151576100be565b80635c5e531c116100a75780635c5e531c1461010c578063715018a61461012c57806385e9e25c14610136576100be565b806317fc54be146100c35780632d193f2a146100ec575b600080fd5b6100d66100d13660046105ac565b610192565b6040516100e391906105d8565b60405180910390f35b6100ff6100fa3660046105ac565b6101b2565b6040516100e391906105c4565b61011f61011a366004610583565b6101cd565b6040516100e39190610686565b6101346102c7565b005b6100ff6101443660046105ac565b610392565b6100ff6103ad565b6100ff61015f3660046105ac565b6103bc565b6100d6610172366004610562565b61040b565b61011f610420565b61013461018d366004610562565b610426565b60006001546000190182116101a9575060016101ad565b5060005b919050565b6003602052600090815260409020546001600160a01b031681565b60006001600160a01b0383166101fe5760405162461bcd60e51b81526004016101f5906105e3565b60405180910390fd5b6001600160a01b03831660009081526002602052604090205460ff16156102375760405162461bcd60e51b81526004016101f590610618565b506001805480820182557fb10e2d527612073b26eecdfd717e6a320cf44b4afac2b0732d9fcbe2b7fa0cf60180546001600160a01b03851673ffffffffffffffffffffffffffffffffffffffff1991821681179092556000828152600260209081526040808320805460ff1916871790558683526003909152902080549091169091179055546000190192915050565b6102cf610547565b6001600160a01b03166102e06103ad565b6001600160a01b03161461033b576040805162461bcd60e51b815260206004820181905260248201527f4f776e61626c653a2063616c6c6572206973206e6f7420746865206f776e6572604482015290519081900360640190fd5b600080546040516001600160a01b03909116907f8be0079c531659141344cd1fd0a4f28419497f9722a3daafe3b4186f6b6457e0908390a36000805473ffffffffffffffffffffffffffffffffffffffff19169055565b6000908152600360205260409020546001600160a01b031690565b6000546001600160a01b031690565b60006103c782610192565b6103e35760405162461bcd60e51b81526004016101f59061064f565b600182815481106103f057fe5b6000918252602090912001546001600160a01b031692915050565b60026020526000908152604090205460ff1681565b60015490565b61042e610547565b6001600160a01b031661043f6103ad565b6001600160a01b03161461049a576040805162461bcd60e51b815260206004820181905260248201527f4f776e61626c653a2063616c6c6572206973206e6f7420746865206f776e6572604482015290519081900360640190fd5b6001600160a01b0381166104df5760405162461bcd60e51b81526004018080602001828103825260268152602001806106906026913960400191505060405180910390fd5b600080546040516001600160a01b03808516939216917f8be0079c531659141344cd1fd0a4f28419497f9722a3daafe3b4186f6b6457e091a36000805473ffffffffffffffffffffffffffffffffffffffff19166001600160a01b0392909216919091179055565b3390565b80356001600160a01b03811681146101ad57600080fd5b600060208284031215610573578081fd5b61057c8261054b565b9392505050565b60008060408385031215610595578081fd5b61059e8361054b565b946020939093013593505050565b6000602082840312156105bd578081fd5b5035919050565b6001600160a01b0391909116815260200190565b901515815260200190565b6020808252818101527f416464726573732063616e6e6f742062652061207a65726f2061646472657373604082015260600190565b60208082526015908201527f4164647265737320616c72656164792061646465640000000000000000000000604082015260600190565b6020808252600e908201527f4e6f7420612076616c6964204964000000000000000000000000000000000000604082015260600190565b9081526020019056fe4f776e61626c653a206e6577206f776e657220697320746865207a65726f2061646472657373a164736f6c6343000705000a",
  "linkReferences": {},
  "deployedLinkReferences": {}
}