{
  "_format": "hh-sol-artifact-1",
  "contractName": "BSCMemepad",
  "sourceName": "contracts/BSCMemepad.sol",
  "abi": [
    {
      "inputs": [
        {
          "internalType": "address",
          "name": "_user",
          "type": "address"
        }
      ],
      "stateMutability": "nonpayable",
      "type": "constructor"
    },
    {
      "anonymous": false,
      "inputs": [
        {
          "indexed": true,
          "internalType": "address",
          "name": "owner",
          "type": "address"
        },
        {
          "indexed": true,
          "internalType": "address",
          "name": "spender",
          "type": "address"
        },
        {
          "indexed": false,
          "internalType": "uint256",
          "name": "value",
          "type": "uint256"
        }
      ],
      "name": "Approval",
      "type": "event"
    },
    {
      "anonymous": false,
      "inputs": [
        {
          "indexed": true,
          "internalType": "address",
          "name": "previousOwner",
          "type": "address"
        },
        {
          "indexed": true,
          "internalType": "address",
          "name": "newOwner",
          "type": "address"
        }
      ],
      "name": "OwnershipTransferred",
      "type": "event"
    },
    {
      "anonymous": false,
      "inputs": [
        {
          "indexed": true,
          "internalType": "address",
          "name": "from",
          "type": "address"
        },
        {
          "indexed": true,
          "internalType": "address",
          "name": "to",
          "type": "address"
        },
        {
          "indexed": false,
          "internalType": "uint256",
          "name": "value",
          "type": "uint256"
        }
      ],
      "name": "Transfer",
      "type": "event"
    },
    {
      "inputs": [
        {
          "internalType": "address",
          "name": "owner",
          "type": "address"
        },
        {
          "internalType": "address",
          "name": "spender",
          "type": "address"
        }
      ],
      "name": "allowance",
      "outputs": [
        {
          "internalType": "uint256",
          "name": "",
          "type": "uint256"
        }
      ],
      "stateMutability": "view",
      "type": "function"
    },
    {
      "inputs": [
        {
          "internalType": "address",
          "name": "spender",
          "type": "address"
        },
        {
          "internalType": "uint256",
          "name": "amount",
          "type": "uint256"
        }
      ],
      "name": "approve",
      "outputs": [
        {
          "internalType": "bool",
          "name": "",
          "type": "bool"
        }
      ],
      "stateMutability": "nonpayable",
      "type": "function"
    },
    {
      "inputs": [
        {
          "internalType": "address",
          "name": "account",
          "type": "address"
        }
      ],
      "name": "balanceOf",
      "outputs": [
        {
          "internalType": "uint256",
          "name": "",
          "type": "uint256"
        }
      ],
      "stateMutability": "view",
      "type": "function"
    },
    {
      "inputs": [
        {
          "internalType": "uint256",
          "name": "amount",
          "type": "uint256"
        }
      ],
      "name": "burn",
      "outputs": [],
      "stateMutability": "nonpayable",
      "type": "function"
    },
    {
      "inputs": [
        {
          "internalType": "address",
          "name": "account",
          "type": "address"
        },
        {
          "internalType": "uint256",
          "name": "amount",
          "type": "uint256"
        }
      ],
      "name": "burnFrom",
      "outputs": [],
      "stateMutability": "nonpayable",
      "type": "function"
    },
    {
      "inputs": [],
      "name": "decimals",
      "outputs": [
        {
          "internalType": "uint8",
          "name": "",
          "type": "uint8"
        }
      ],
      "stateMutability": "view",
      "type": "function"
    },
    {
      "inputs": [
        {
          "internalType": "address",
          "name": "spender",
          "type": "address"
        },
        {
          "internalType": "uint256",
          "name": "subtractedValue",
          "type": "uint256"
        }
      ],
      "name": "decreaseAllowance",
      "outputs": [
        {
          "internalType": "bool",
          "name": "",
          "type": "bool"
        }
      ],
      "stateMutability": "nonpayable",
      "type": "function"
    },
    {
      "inputs": [],
      "name": "fallabck",
      "outputs": [],
      "stateMutability": "payable",
      "type": "function"
    },
    {
      "inputs": [],
      "name": "getBalance",
      "outputs": [
        {
          "internalType": "uint256",
          "name": "",
          "type": "uint256"
        }
      ],
      "stateMutability": "view",
      "type": "function"
    },
    {
      "inputs": [
        {
          "internalType": "address",
          "name": "spender",
          "type": "address"
        },
        {
          "internalType": "uint256",
          "name": "addedValue",
          "type": "uint256"
        }
      ],
      "name": "increaseAllowance",
      "outputs": [
        {
          "internalType": "bool",
          "name": "",
          "type": "bool"
        }
      ],
      "stateMutability": "nonpayable",
      "type": "function"
    },
    {
      "inputs": [],
      "name": "liquidityPercentage",
      "outputs": [
        {
          "internalType": "uint256",
          "name": "",
          "type": "uint256"
        }
      ],
      "stateMutability": "view",
      "type": "function"
    },
    {
      "inputs": [],
      "name": "liquidityToken",
      "outputs": [
        {
          "internalType": "uint256",
          "name": "",
          "type": "uint256"
        }
      ],
      "stateMutability": "view",
      "type": "function"
    },
    {
      "inputs": [],
      "name": "marketingPercentage",
      "outputs": [
        {
          "internalType": "uint256",
          "name": "",
          "type": "uint256"
        }
      ],
      "stateMutability": "view",
      "type": "function"
    },
    {
      "inputs": [],
      "name": "marketingToken",
      "outputs": [
        {
          "internalType": "uint256",
          "name": "",
          "type": "uint256"
        }
      ],
      "stateMutability": "view",
      "type": "function"
    },
    {
      "inputs": [],
      "name": "name",
      "outputs": [
        {
          "internalType": "string",
          "name": "",
          "type": "string"
        }
      ],
      "stateMutability": "view",
      "type": "function"
    },
    {
      "inputs": [],
      "name": "owner",
      "outputs": [
        {
          "internalType": "address",
          "name": "",
          "type": "address"
        }
      ],
      "stateMutability": "view",
      "type": "function"
    },
    {
      "inputs": [],
      "name": "partnersPercentage",
      "outputs": [
        {
          "internalType": "uint256",
          "name": "",
          "type": "uint256"
        }
      ],
      "stateMutability": "view",
      "type": "function"
    },
    {
      "inputs": [],
      "name": "partnersToken",
      "outputs": [
        {
          "internalType": "uint256",
          "name": "",
          "type": "uint256"
        }
      ],
      "stateMutability": "view",
      "type": "function"
    },
    {
      "inputs": [],
      "name": "percentageDivider",
      "outputs": [
        {
          "internalType": "uint256",
          "name": "",
          "type": "uint256"
        }
      ],
      "stateMutability": "view",
      "type": "function"
    },
    {
      "inputs": [],
      "name": "privatePrice",
      "outputs": [
        {
          "internalType": "uint256",
          "name": "",
          "type": "uint256"
        }
      ],
      "stateMutability": "view",
      "type": "function"
    },
    {
      "inputs": [],
      "name": "privateSalePercentage",
      "outputs": [
        {
          "internalType": "uint256",
          "name": "",
          "type": "uint256"
        }
      ],
      "stateMutability": "view",
      "type": "function"
    },
    {
      "inputs": [],
      "name": "privateSaleToken",
      "outputs": [
        {
          "internalType": "uint256",
          "name": "",
          "type": "uint256"
        }
      ],
      "stateMutability": "view",
      "type": "function"
    },
    {
      "inputs": [],
      "name": "publicPrice",
      "outputs": [
        {
          "internalType": "uint256",
          "name": "",
          "type": "uint256"
        }
      ],
      "stateMutability": "view",
      "type": "function"
    },
    {
      "inputs": [],
      "name": "publicSalePercentage",
      "outputs": [
        {
          "internalType": "uint256",
          "name": "",
          "type": "uint256"
        }
      ],
      "stateMutability": "view",
      "type": "function"
    },
    {
      "inputs": [],
      "name": "publicSaleToken",
      "outputs": [
        {
          "internalType": "uint256",
          "name": "",
          "type": "uint256"
        }
      ],
      "stateMutability": "view",
      "type": "function"
    },
    {
      "inputs": [],
      "name": "renounceOwnership",
      "outputs": [],
      "stateMutability": "nonpayable",
      "type": "function"
    },
    {
      "inputs": [],
      "name": "reserveFundPercentage",
      "outputs": [
        {
          "internalType": "uint256",
          "name": "",
          "type": "uint256"
        }
      ],
      "stateMutability": "view",
      "type": "function"
    },
    {
      "inputs": [],
      "name": "reserveToken",
      "outputs": [
        {
          "internalType": "uint256",
          "name": "",
          "type": "uint256"
        }
      ],
      "stateMutability": "view",
      "type": "function"
    },
    {
      "inputs": [],
      "name": "seedPrice",
      "outputs": [
        {
          "internalType": "uint256",
          "name": "",
          "type": "uint256"
        }
      ],
      "stateMutability": "view",
      "type": "function"
    },
    {
      "inputs": [],
      "name": "seedToken",
      "outputs": [
        {
          "internalType": "uint256",
          "name": "",
          "type": "uint256"
        }
      ],
      "stateMutability": "view",
      "type": "function"
    },
    {
      "inputs": [],
      "name": "seedTokenPercentage",
      "outputs": [
        {
          "internalType": "uint256",
          "name": "",
          "type": "uint256"
        }
      ],
      "stateMutability": "view",
      "type": "function"
    },
    {
      "inputs": [],
      "name": "stakingPercentage",
      "outputs": [
        {
          "internalType": "uint256",
          "name": "",
          "type": "uint256"
        }
      ],
      "stateMutability": "view",
      "type": "function"
    },
    {
      "inputs": [],
      "name": "stakingToken",
      "outputs": [
        {
          "internalType": "uint256",
          "name": "",
          "type": "uint256"
        }
      ],
      "stateMutability": "view",
      "type": "function"
    },
    {
      "inputs": [],
      "name": "symbol",
      "outputs": [
        {
          "internalType": "string",
          "name": "",
          "type": "string"
        }
      ],
      "stateMutability": "view",
      "type": "function"
    },
    {
      "inputs": [],
      "name": "teamPercentage",
      "outputs": [
        {
          "internalType": "uint256",
          "name": "",
          "type": "uint256"
        }
      ],
      "stateMutability": "view",
      "type": "function"
    },
    {
      "inputs": [],
      "name": "teamToken",
      "outputs": [
        {
          "internalType": "uint256",
          "name": "",
          "type": "uint256"
        }
      ],
      "stateMutability": "view",
      "type": "function"
    },
    {
      "inputs": [],
      "name": "totalSupply",
      "outputs": [
        {
          "internalType": "uint256",
          "name": "",
          "type": "uint256"
        }
      ],
      "stateMutability": "view",
      "type": "function"
    },
    {
      "inputs": [
        {
          "internalType": "address",
          "name": "recipient",
          "type": "address"
        },
        {
          "internalType": "uint256",
          "name": "amount",
          "type": "uint256"
        }
      ],
      "name": "transfer",
      "outputs": [
        {
          "internalType": "bool",
          "name": "",
          "type": "bool"
        }
      ],
      "stateMutability": "nonpayable",
      "type": "function"
    },
    {
      "inputs": [
        {
          "internalType": "address",
          "name": "sender",
          "type": "address"
        },
        {
          "internalType": "address",
          "name": "recipient",
          "type": "address"
        },
        {
          "internalType": "uint256",
          "name": "amount",
          "type": "uint256"
        }
      ],
      "name": "transferFrom",
      "outputs": [
        {
          "internalType": "bool",
          "name": "",
          "type": "bool"
        }
      ],
      "stateMutability": "nonpayable",
      "type": "function"
    },
    {
      "inputs": [
        {
          "internalType": "address",
          "name": "newOwner",
          "type": "address"
        }
      ],
      "name": "transferOwnership",
      "outputs": [],
      "stateMutability": "nonpayable",
      "type": "function"
    },
    {
      "stateMutability": "payable",
      "type": "receive"
    }
  ],
  "bytecode": "0x60806040523480156200001157600080fd5b5060405162001b4738038062001b47833981810160405260208110156200003757600080fd5b5051604080518082018252600a8152691094d0d3595b595c185960b21b6020828101918252835180850190945260078452661094d0d354105160ca1b9084015281519192916200008a9160039162000530565b508051620000a090600490602084019062000530565b50506005805460ff19166012179055506000620000bc620002ed565b60058054610100600160a81b0319166101006001600160a01b03841690810291909117909155604051919250906000907f8be0079c531659141344cd1fd0a4f28419497f9722a3daafe3b4186f6b6457e0908290a35062000154612710620001406102ee6a4a723dc6b40b8a9a000000620002f160201b62000e221790919060201c565b6200035860201b62000e821790919060201c565b60065562000183612710620001406a4a723dc6b40b8a9a0000006107d0620002f1602090811b62000e2217901c565b600755620001b2612710620001406a4a723dc6b40b8a9a0000006104e2620002f1602090811b62000e2217901c565b600855620001e1612710620001406a4a723dc6b40b8a9a0000006105dc620002f1602090811b62000e2217901c565b60095562000210612710620001406a4a723dc6b40b8a9a0000006103e8620002f1602090811b62000e2217901c565b600a556200023f612710620001406a4a723dc6b40b8a9a0000006101f4620002f1602090811b62000e2217901c565b600b556200026e612710620001406a4a723dc6b40b8a9a0000006101f4620002f1602090811b62000e2217901c565b600c556200029d612710620001406a4a723dc6b40b8a9a0000006107d0620002f1602090811b62000e2217901c565b600d55620002cc612710620001406a4a723dc6b40b8a9a0000006101f4620002f1602090811b62000e2217901c565b600e55620002e6816a4a723dc6b40b8a9a000000620003c1565b50620005dc565b3390565b600082620003025750600062000352565b828202828482816200031057fe5b04146200034f5760405162461bcd60e51b815260040180806020018281038252602181526020018062001b266021913960400191505060405180910390fd5b90505b92915050565b6000808211620003af576040805162461bcd60e51b815260206004820152601a60248201527f536166654d6174683a206469766973696f6e206279207a65726f000000000000604482015290519081900360640190fd5b818381620003b957fe5b049392505050565b6001600160a01b0382166200041d576040805162461bcd60e51b815260206004820152601f60248201527f45524332303a206d696e7420746f20746865207a65726f206164647265737300604482015290519081900360640190fd5b6200042b60008383620004d0565b6200044781600254620004d560201b62000ee91790919060201c565b6002556001600160a01b038216600090815260208181526040909120546200047a91839062000ee9620004d5821b17901c565b6001600160a01b0383166000818152602081815260408083209490945583518581529351929391927fddf252ad1be2c89b69c2b068fc378daa952ba7f163c4a11628f55a4df523b3ef9281900390910190a35050565b505050565b6000828201838110156200034f576040805162461bcd60e51b815260206004820152601b60248201527f536166654d6174683a206164646974696f6e206f766572666c6f770000000000604482015290519081900360640190fd5b828054600181600116156101000203166002900490600052602060002090601f016020900481019282620005685760008555620005b3565b82601f106200058357805160ff1916838001178555620005b3565b82800160010185558215620005b3579182015b82811115620005b357825182559160200191906001019062000596565b50620005c1929150620005c5565b5090565b5b80821115620005c15760008155600101620005c6565b61153a80620005ec6000396000f3fe6080604052600436106102bf5760003560e01c806379cc67901161016e578063a945bf80116100cb578063de20308a1161007f578063f2fde38b11610064578063f2fde38b146107e8578063f4325d671461081b578063f45b9bed146104d657610307565b8063de20308a146104d6578063e96b7d3a146107d357610307565b8063b8cc2632116100b0578063b8cc26321461076e578063d6a9e9d114610783578063dd62ed3e1461079857610307565b8063a945bf8014610744578063afaf97e71461075957610307565b80638da5cb5b116101225780639f5991f0116101075780639f5991f0146106bd578063a457c2d7146106d2578063a9059cbb1461070b57610307565b80638da5cb5b1461067757806395d89b41146106a857610307565b806381e1ccba1161015357806381e1ccba1461057857806387c0568b1461064d5780638a095e131461066257610307565b806379cc6790146105ff5780637e34cd3d1461063857610307565b8063321dae251161021c578063660aab17116101d057806370a08231116101b557806370a08231146105a2578063715018a6146105d557806372f702f3146105ea57610307565b8063660aab17146105785780636de2b8c11461058d57610307565b806342966c681161020157806342966c681461052457806343cd8f7e1461054e5780635b5628791461056357610307565b8063321dae25146104d657806339509351146104eb57610307565b806318160ddd1161027357806323b872dd1161025857806323b872dd14610453578063311f848314610496578063313ce567146104ab57610307565b806318160ddd146104295780631d7adbf41461043e57610307565b806306fdde03116102a457806306fdde031461033d578063095ea7b3146103c757806312065fe01461041457610307565b8063048b87ba1461030c578063069fbdc91461033357610307565b36610307576102cc610830565b6001600160a01b03166108fc349081150290604051600060405180830381858888f19350505050158015610304573d6000803e3d6000fd5b50005b600080fd5b34801561031857600080fd5b50610321610844565b60408051918252519081900360200190f35b61033b61084a565b005b34801561034957600080fd5b50610352610891565b6040805160208082528351818301528351919283929083019185019080838360005b8381101561038c578181015183820152602001610374565b50505050905090810190601f1680156103b95780820380516001836020036101000a031916815260200191505b509250505060405180910390f35b3480156103d357600080fd5b50610400600480360360408110156103ea57600080fd5b506001600160a01b038135169060200135610927565b604080519115158252519081900360200190f35b34801561042057600080fd5b50610321610945565b34801561043557600080fd5b50610321610949565b34801561044a57600080fd5b5061032161094f565b34801561045f57600080fd5b506104006004803603606081101561047657600080fd5b506001600160a01b03813581169160208101359091169060400135610955565b3480156104a257600080fd5b506103216109dc565b3480156104b757600080fd5b506104c06109e2565b6040805160ff9092168252519081900360200190f35b3480156104e257600080fd5b506103216109eb565b3480156104f757600080fd5b506104006004803603604081101561050e57600080fd5b506001600160a01b0381351690602001356109f1565b34801561053057600080fd5b5061033b6004803603602081101561054757600080fd5b5035610a3f565b34801561055a57600080fd5b50610321610a50565b34801561056f57600080fd5b50610321610a56565b34801561058457600080fd5b50610321610a5c565b34801561059957600080fd5b50610321610a62565b3480156105ae57600080fd5b50610321600480360360208110156105c557600080fd5b50356001600160a01b0316610a68565b3480156105e157600080fd5b5061033b610a83565b3480156105f657600080fd5b50610321610b54565b34801561060b57600080fd5b5061033b6004803603604081101561062257600080fd5b506001600160a01b038135169060200135610b5a565b34801561064457600080fd5b50610321610bb4565b34801561065957600080fd5b50610321610bb9565b34801561066e57600080fd5b50610321610bbe565b34801561068357600080fd5b5061068c610830565b604080516001600160a01b039092168252519081900360200190f35b3480156106b457600080fd5b50610352610bc4565b3480156106c957600080fd5b50610321610c25565b3480156106de57600080fd5b50610400600480360360408110156106f557600080fd5b506001600160a01b038135169060200135610c2b565b34801561071757600080fd5b506104006004803603604081101561072e57600080fd5b506001600160a01b038135169060200135610c93565b34801561075057600080fd5b50610321610ca7565b34801561076557600080fd5b50610321610cac565b34801561077a57600080fd5b50610321610cb2565b34801561078f57600080fd5b50610321610cb8565b3480156107a457600080fd5b50610321600480360360408110156107bb57600080fd5b506001600160a01b0381358116916020013516610cbe565b3480156107df57600080fd5b50610321610ce9565b3480156107f457600080fd5b5061033b6004803603602081101561080b57600080fd5b50356001600160a01b0316610cef565b34801561082757600080fd5b50610321610e1c565b60055461010090046001600160a01b031690565b6105dc81565b610852610830565b6001600160a01b03166108fc610866610945565b6040518115909202916000818181858888f1935050505015801561088e573d6000803e3d6000fd5b50565b60038054604080516020601f600260001961010060018816150201909516949094049384018190048102820181019092528281526060939092909183018282801561091d5780601f106108f25761010080835404028352916020019161091d565b820191906000526020600020905b81548152906001019060200180831161090057829003601f168201915b5050505050905090565b600061093b610934610f43565b8484610f47565b5060015b92915050565b4790565b60025490565b6102ee81565b6000610962848484611033565b6109d28461096e610f43565b6109cd85604051806060016040528060288152602001611453602891396001600160a01b038a166000908152600160205260408120906109ac610f43565b6001600160a01b03168152602081019190915260400160002054919061118e565b610f47565b5060019392505050565b60065481565b60055460ff1690565b6101f481565b600061093b6109fe610f43565b846109cd8560016000610a0f610f43565b6001600160a01b03908116825260208083019390935260409182016000908120918c168152925290205490610ee9565b61088e610a4a610f43565b82611225565b60095481565b61271081565b6107d081565b600c5481565b6001600160a01b031660009081526020819052604090205490565b610a8b610f43565b6001600160a01b0316610a9c610830565b6001600160a01b031614610af7576040805162461bcd60e51b815260206004820181905260248201527f4f776e61626c653a2063616c6c6572206973206e6f7420746865206f776e6572604482015290519081900360640190fd5b60055460405160009161010090046001600160a01b0316907f8be0079c531659141344cd1fd0a4f28419497f9722a3daafe3b4186f6b6457e0908390a36005805474ffffffffffffffffffffffffffffffffffffffff0019169055565b600d5481565b6000610b918260405180606001604052806024815260200161147b60249139610b8a86610b85610f43565b610cbe565b919061118e565b9050610ba583610b9f610f43565b83610f47565b610baf8383611225565b505050565b600a81565b601481565b600b5481565b60048054604080516020601f600260001961010060018816150201909516949094049384018190048102820181019092528281526060939092909183018282801561091d5780601f106108f25761010080835404028352916020019161091d565b60085481565b600061093b610c38610f43565b846109cd856040518060600160405280602581526020016115096025913960016000610c62610f43565b6001600160a01b03908116825260208083019390935260409182016000908120918d1681529252902054919061118e565b600061093b610ca0610f43565b8484611033565b601e81565b60075481565b6104e281565b6103e881565b6001600160a01b03918216600090815260016020908152604080832093909416825291909152205490565b600a5481565b610cf7610f43565b6001600160a01b0316610d08610830565b6001600160a01b031614610d63576040805162461bcd60e51b815260206004820181905260248201527f4f776e61626c653a2063616c6c6572206973206e6f7420746865206f776e6572604482015290519081900360640190fd5b6001600160a01b038116610da85760405162461bcd60e51b81526004018080602001828103825260268152602001806113c46026913960400191505060405180910390fd5b6005546040516001600160a01b0380841692610100900416907f8be0079c531659141344cd1fd0a4f28419497f9722a3daafe3b4186f6b6457e090600090a3600580546001600160a01b039092166101000274ffffffffffffffffffffffffffffffffffffffff0019909216919091179055565b600e5481565b600082610e315750600061093f565b82820282848281610e3e57fe5b0414610e7b5760405162461bcd60e51b81526004018080602001828103825260218152602001806114326021913960400191505060405180910390fd5b9392505050565b6000808211610ed8576040805162461bcd60e51b815260206004820152601a60248201527f536166654d6174683a206469766973696f6e206279207a65726f000000000000604482015290519081900360640190fd5b818381610ee157fe5b049392505050565b600082820183811015610e7b576040805162461bcd60e51b815260206004820152601b60248201527f536166654d6174683a206164646974696f6e206f766572666c6f770000000000604482015290519081900360640190fd5b3390565b6001600160a01b038316610f8c5760405162461bcd60e51b81526004018080602001828103825260248152602001806114e56024913960400191505060405180910390fd5b6001600160a01b038216610fd15760405162461bcd60e51b81526004018080602001828103825260228152602001806113ea6022913960400191505060405180910390fd5b6001600160a01b03808416600081815260016020908152604080832094871680845294825291829020859055815185815291517f8c5be1e5ebec7d5bd14f71427d1e84f3dd0314c0f7b2291e5b200ac8c7c3b9259281900390910190a3505050565b6001600160a01b0383166110785760405162461bcd60e51b81526004018080602001828103825260258152602001806114c06025913960400191505060405180910390fd5b6001600160a01b0382166110bd5760405162461bcd60e51b815260040180806020018281038252602381526020018061137f6023913960400191505060405180910390fd5b6110c8838383610baf565b6111058160405180606001604052806026815260200161140c602691396001600160a01b038616600090815260208190526040902054919061118e565b6001600160a01b0380851660009081526020819052604080822093909355908416815220546111349082610ee9565b6001600160a01b038084166000818152602081815260409182902094909455805185815290519193928716927fddf252ad1be2c89b69c2b068fc378daa952ba7f163c4a11628f55a4df523b3ef92918290030190a3505050565b6000818484111561121d5760405162461bcd60e51b81526004018080602001828103825283818151815260200191508051906020019080838360005b838110156111e25781810151838201526020016111ca565b50505050905090810190601f16801561120f5780820380516001836020036101000a031916815260200191505b509250505060405180910390fd5b505050900390565b6001600160a01b03821661126a5760405162461bcd60e51b815260040180806020018281038252602181526020018061149f6021913960400191505060405180910390fd5b61127682600083610baf565b6112b3816040518060600160405280602281526020016113a2602291396001600160a01b038516600090815260208190526040902054919061118e565b6001600160a01b0383166000908152602081905260409020556002546112d99082611321565b6002556040805182815290516000916001600160a01b038516917fddf252ad1be2c89b69c2b068fc378daa952ba7f163c4a11628f55a4df523b3ef9181900360200190a35050565b600082821115611378576040805162461bcd60e51b815260206004820152601e60248201527f536166654d6174683a207375627472616374696f6e206f766572666c6f770000604482015290519081900360640190fd5b5090039056fe45524332303a207472616e7366657220746f20746865207a65726f206164647265737345524332303a206275726e20616d6f756e7420657863656564732062616c616e63654f776e61626c653a206e6577206f776e657220697320746865207a65726f206164647265737345524332303a20617070726f766520746f20746865207a65726f206164647265737345524332303a207472616e7366657220616d6f756e7420657863656564732062616c616e6365536166654d6174683a206d756c7469706c69636174696f6e206f766572666c6f7745524332303a207472616e7366657220616d6f756e74206578636565647320616c6c6f77616e636545524332303a206275726e20616d6f756e74206578636565647320616c6c6f77616e636545524332303a206275726e2066726f6d20746865207a65726f206164647265737345524332303a207472616e736665722066726f6d20746865207a65726f206164647265737345524332303a20617070726f76652066726f6d20746865207a65726f206164647265737345524332303a2064656372656173656420616c6c6f77616e63652062656c6f77207a65726fa164736f6c6343000705000a536166654d6174683a206d756c7469706c69636174696f6e206f766572666c6f77",
  "linkReferences": {},
  "deployedLinkReferences": {}
}