{
    "contractName": "StakeBSCM",
    "abi": [
        {
            "inputs": [
                {
                    "internalType": "contract IERC20",
                    "name": "bscmemepadContractAddress",
                    "type": "address"
                }
            ],
            "stateMutability": "nonpayable",
            "type": "constructor"
        },
        {
            "anonymous": false,
            "inputs": [
                {
                    "indexed": true,
                    "internalType": "address",
                    "name": "previousOwner",
                    "type": "address"
                },
                {
                    "indexed": true,
                    "internalType": "address",
                    "name": "newOwner",
                    "type": "address"
                }
            ],
            "name": "OwnershipTransferred",
            "type": "event"
        },
        {
            "anonymous": false,
            "inputs": [
                {
                    "indexed": true,
                    "internalType": "address",
                    "name": "staker",
                    "type": "address"
                },
                {
                    "indexed": false,
                    "internalType": "uint256",
                    "name": "amount",
                    "type": "uint256"
                },
                {
                    "indexed": false,
                    "internalType": "uint256",
                    "name": "stakedAt",
                    "type": "uint256"
                }
            ],
            "name": "Stake",
            "type": "event"
        },
        {
            "anonymous": false,
            "inputs": [
                {
                    "indexed": true,
                    "internalType": "address",
                    "name": "unStaker",
                    "type": "address"
                },
                {
                    "indexed": false,
                    "internalType": "uint256",
                    "name": "amount",
                    "type": "uint256"
                },
                {
                    "indexed": false,
                    "internalType": "uint256",
                    "name": "unStakedAt",
                    "type": "uint256"
                }
            ],
            "name": "UnStake",
            "type": "event"
        },
        {
            "stateMutability": "payable",
            "type": "fallback",
            "payable": true
        },
        {
            "inputs": [],
            "name": "BSCMemepadContract",
            "outputs": [
                {
                    "internalType": "contract IERC20",
                    "name": "",
                    "type": "address"
                }
            ],
            "stateMutability": "view",
            "type": "function",
            "constant": true
        },
        {
            "inputs": [],
            "name": "owner",
            "outputs": [
                {
                    "internalType": "address",
                    "name": "",
                    "type": "address"
                }
            ],
            "stateMutability": "view",
            "type": "function",
            "constant": true
        },
        {
            "inputs": [],
            "name": "renounceOwnership",
            "outputs": [],
            "stateMutability": "nonpayable",
            "type": "function"
        },
        {
            "inputs": [
                {
                    "internalType": "address",
                    "name": "",
                    "type": "address"
                }
            ],
            "name": "stakerInfo",
            "outputs": [
                {
                    "internalType": "bool",
                    "name": "isPresent",
                    "type": "bool"
                },
                {
                    "internalType": "uint256",
                    "name": "stakedAt",
                    "type": "uint256"
                },
                {
                    "internalType": "uint256",
                    "name": "amount",
                    "type": "uint256"
                }
            ],
            "stateMutability": "view",
            "type": "function",
            "constant": true
        },
        {
            "inputs": [
                {
                    "internalType": "uint256",
                    "name": "",
                    "type": "uint256"
                }
            ],
            "name": "stakers",
            "outputs": [
                {
                    "internalType": "address",
                    "name": "",
                    "type": "address"
                }
            ],
            "stateMutability": "view",
            "type": "function",
            "constant": true
        },
        {
            "inputs": [],
            "name": "totalBSCMemepadStaked",
            "outputs": [
                {
                    "internalType": "uint256",
                    "name": "",
                    "type": "uint256"
                }
            ],
            "stateMutability": "view",
            "type": "function",
            "constant": true
        },
        {
            "inputs": [
                {
                    "internalType": "address",
                    "name": "newOwner",
                    "type": "address"
                }
            ],
            "name": "transferOwnership",
            "outputs": [],
            "stateMutability": "nonpayable",
            "type": "function"
        },
        {
            "stateMutability": "payable",
            "type": "receive",
            "payable": true
        },
        {
            "inputs": [
                {
                    "internalType": "uint256",
                    "name": "amount",
                    "type": "uint256"
                }
            ],
            "name": "stake",
            "outputs": [],
            "stateMutability": "nonpayable",
            "type": "function"
        },
        {
            "inputs": [
                {
                    "internalType": "uint256",
                    "name": "amount",
                    "type": "uint256"
                }
            ],
            "name": "unStake",
            "outputs": [],
            "stateMutability": "nonpayable",
            "type": "function"
        },
        {
            "inputs": [],
            "name": "myStakes",
            "outputs": [
                {
                    "internalType": "uint256",
                    "name": "stakedBSCMemepad",
                    "type": "uint256"
                },
                {
                    "internalType": "uint256",
                    "name": "daysStakedFor",
                    "type": "uint256"
                }
            ],
            "stateMutability": "view",
            "type": "function",
            "constant": true
        },
        {
            "inputs": [],
            "name": "totalStakers",
            "outputs": [
                {
                    "internalType": "uint256",
                    "name": "",
                    "type": "uint256"
                }
            ],
            "stateMutability": "view",
            "type": "function",
            "constant": true
        }
    ],
    "bytecode": "0x60806040523480156200001157600080fd5b50604051620020283803806200202883398181016040528101906200003791906200025c565b620000576200004b6200011260201b60201c565b6200011a60201b60201c565b600073ffffffffffffffffffffffffffffffffffffffff168173ffffffffffffffffffffffffffffffffffffffff161415620000ca576040517f08c379a0000000000000000000000000000000000000000000000000000000008152600401620000c190620002ef565b60405180910390fd5b80600160006101000a81548173ffffffffffffffffffffffffffffffffffffffff021916908373ffffffffffffffffffffffffffffffffffffffff1602179055505062000311565b600033905090565b60008060009054906101000a900473ffffffffffffffffffffffffffffffffffffffff169050816000806101000a81548173ffffffffffffffffffffffffffffffffffffffff021916908373ffffffffffffffffffffffffffffffffffffffff1602179055508173ffffffffffffffffffffffffffffffffffffffff168173ffffffffffffffffffffffffffffffffffffffff167f8be0079c531659141344cd1fd0a4f28419497f9722a3daafe3b4186f6b6457e060405160405180910390a35050565b600080fd5b600073ffffffffffffffffffffffffffffffffffffffff82169050919050565b60006200021082620001e3565b9050919050565b6000620002248262000203565b9050919050565b620002368162000217565b81146200024257600080fd5b50565b60008151905062000256816200022b565b92915050565b600060208284031215620002755762000274620001de565b5b6000620002858482850162000245565b91505092915050565b600082825260208201905092915050565b7f43616e6e6f742062652061646472657373207a65726f00000000000000000000600082015250565b6000620002d76016836200028e565b9150620002e4826200029f565b602082019050919050565b600060208201905081810360008301526200030a81620002c8565b9050919050565b611d0780620003216000396000f3fe6080604052600436106100a05760003560e01c80638da5cb5b116100645780638da5cb5b1461017f578063a3a46c6a146101aa578063a694fc3a146101d5578063f2fde38b146101fe578063f899d5f914610227578063fd5e6dd114610252576100a7565b80634e745f1f146100a95780635d3eea91146100e8578063715018a61461011157806371bb3d01146101285780638698903814610154576100a7565b366100a757005b005b3480156100b557600080fd5b506100d060048036038101906100cb91906111fd565b61028f565b6040516100df9392919061125e565b60405180910390f35b3480156100f457600080fd5b5061010f600480360381019061010a91906112c1565b6102c6565b005b34801561011d57600080fd5b506101266106ab565b005b34801561013457600080fd5b5061013d610733565b60405161014b9291906112ee565b60405180910390f35b34801561016057600080fd5b506101696107e5565b6040516101769190611317565b60405180910390f35b34801561018b57600080fd5b506101946107f2565b6040516101a19190611341565b60405180910390f35b3480156101b657600080fd5b506101bf61081b565b6040516101cc91906113bb565b60405180910390f35b3480156101e157600080fd5b506101fc60048036038101906101f791906112c1565b610841565b005b34801561020a57600080fd5b50610225600480360381019061022091906111fd565b610bf2565b005b34801561023357600080fd5b5061023c610cea565b6040516102499190611317565b60405180910390f35b34801561025e57600080fd5b50610279600480360381019061027491906112c1565b610cf0565b6040516102869190611341565b60405180910390f35b60046020528060005260406000206000915090508060000160009054906101000a900460ff16908060010154908060020154905083565b60008111610309576040517f08c379a000000000000000000000000000000000000000000000000000000000815260040161030090611433565b60405180910390fd5b6000600460003373ffffffffffffffffffffffffffffffffffffffff1673ffffffffffffffffffffffffffffffffffffffff1681526020019081526020016000206040518060600160405290816000820160009054906101000a900460ff1615151515815260200160018201548152602001600282015481525050905060006103958260200151610d2f565b905060078110156103db576040517f08c379a00000000000000000000000000000000000000000000000000000000081526004016103d2906114c5565b60405180910390fd5b6000826040015111610422576040517f08c379a000000000000000000000000000000000000000000000000000000000815260040161041990611531565b60405180910390fd5b8160400151831115610469576040517f08c379a00000000000000000000000000000000000000000000000000000000081526004016104609061159d565b60405180910390fd5b82600160009054906101000a900473ffffffffffffffffffffffffffffffffffffffff1673ffffffffffffffffffffffffffffffffffffffff166370a08231306040518263ffffffff1660e01b81526004016104c59190611341565b602060405180830381865afa1580156104e2573d6000803e3d6000fd5b505050506040513d601f19601f8201168201806040525081019061050691906115d2565b1015610547576040517f08c379a000000000000000000000000000000000000000000000000000000000815260040161053e90611671565b60405180910390fd5b828260400181815161055991906116c0565b915081815250506000826040015114156105795760008260200181815250505b826003600082825461058b91906116c0565b9250508190555081600460003373ffffffffffffffffffffffffffffffffffffffff1673ffffffffffffffffffffffffffffffffffffffff16815260200190815260200160002060008201518160000160006101000a81548160ff02191690831515021790555060208201518160010155604082015181600201559050506106563384600160009054906101000a900473ffffffffffffffffffffffffffffffffffffffff1673ffffffffffffffffffffffffffffffffffffffff16610d529092919063ffffffff16565b3373ffffffffffffffffffffffffffffffffffffffff167f54a9763035584fc4fcad1bc4e0e7a83f93e016f50ae32bd527530a77257393ee844260405161069e9291906112ee565b60405180910390a2505050565b6106b3610dd8565b73ffffffffffffffffffffffffffffffffffffffff166106d16107f2565b73ffffffffffffffffffffffffffffffffffffffff1614610727576040517f08c379a000000000000000000000000000000000000000000000000000000000815260040161071e90611740565b60405180910390fd5b6107316000610de0565b565b6000806000600460003373ffffffffffffffffffffffffffffffffffffffff1673ffffffffffffffffffffffffffffffffffffffff1681526020019081526020016000206040518060600160405290816000820160009054906101000a900460ff16151515158152602001600182015481526020016002820154815250509050806040015192506000816020015111156107db576107d48160200151610d2f565b91506107e0565b600091505b509091565b6000600280549050905090565b60008060009054906101000a900473ffffffffffffffffffffffffffffffffffffffff16905090565b600160009054906101000a900473ffffffffffffffffffffffffffffffffffffffff1681565b60008111610884576040517f08c379a000000000000000000000000000000000000000000000000000000000815260040161087b906117ac565b60405180910390fd5b6000600160009054906101000a900473ffffffffffffffffffffffffffffffffffffffff1673ffffffffffffffffffffffffffffffffffffffff166370a08231336040518263ffffffff1660e01b81526004016108e19190611341565b602060405180830381865afa1580156108fe573d6000803e3d6000fd5b505050506040513d601f19601f8201168201806040525081019061092291906115d2565b905081811015610967576040517f08c379a000000000000000000000000000000000000000000000000000000000815260040161095e90611818565b60405180910390fd5b6000600460003373ffffffffffffffffffffffffffffffffffffffff1673ffffffffffffffffffffffffffffffffffffffff1681526020019081526020016000206040518060600160405290816000820160009054906101000a900460ff161515151581526020016001820154815260200160028201548152505090508060000151610a6c5760018160000190151590811515815250506002339080600181540180825580915050600190039060005260206000200160009091909190916101000a81548173ffffffffffffffffffffffffffffffffffffffff021916908373ffffffffffffffffffffffffffffffffffffffff160217905550428160200181815250505b80600001518015610a81575060008160200151145b8015610a91575060008160400151145b15610aa157428160200181815250505b610af0333085600160009054906101000a900473ffffffffffffffffffffffffffffffffffffffff1673ffffffffffffffffffffffffffffffffffffffff16610ea4909392919063ffffffff16565b8260036000828254610b029190611838565b925050819055508281604001818151610b1b9190611838565b9150818152505080600460003373ffffffffffffffffffffffffffffffffffffffff1673ffffffffffffffffffffffffffffffffffffffff16815260200190815260200160002060008201518160000160006101000a81548160ff02191690831515021790555060208201518160010155604082015181600201559050503373ffffffffffffffffffffffffffffffffffffffff167f5af417134f72a9d41143ace85b0a26dce6f550f894f2cbc1eeee8810603d91b6848360200151604051610be59291906112ee565b60405180910390a2505050565b610bfa610dd8565b73ffffffffffffffffffffffffffffffffffffffff16610c186107f2565b73ffffffffffffffffffffffffffffffffffffffff1614610c6e576040517f08c379a0000000000000000000000000000000000000000000000000000000008152600401610c6590611740565b60405180910390fd5b600073ffffffffffffffffffffffffffffffffffffffff168173ffffffffffffffffffffffffffffffffffffffff161415610cde576040517f08c379a0000000000000000000000000000000000000000000000000000000008152600401610cd590611900565b60405180910390fd5b610ce781610de0565b50565b60035481565b60028181548110610d0057600080fd5b906000526020600020016000915054906101000a900473ffffffffffffffffffffffffffffffffffffffff1681565b6000620151808242610d4191906116c0565b610d4b919061194f565b9050919050565b610dd38363a9059cbb60e01b8484604051602401610d71929190611980565b604051602081830303815290604052907bffffffffffffffffffffffffffffffffffffffffffffffffffffffff19166020820180517bffffffffffffffffffffffffffffffffffffffffffffffffffffffff8381831617835250505050610f2d565b505050565b600033905090565b60008060009054906101000a900473ffffffffffffffffffffffffffffffffffffffff169050816000806101000a81548173ffffffffffffffffffffffffffffffffffffffff021916908373ffffffffffffffffffffffffffffffffffffffff1602179055508173ffffffffffffffffffffffffffffffffffffffff168173ffffffffffffffffffffffffffffffffffffffff167f8be0079c531659141344cd1fd0a4f28419497f9722a3daafe3b4186f6b6457e060405160405180910390a35050565b610f27846323b872dd60e01b858585604051602401610ec5939291906119a9565b604051602081830303815290604052907bffffffffffffffffffffffffffffffffffffffffffffffffffffffff19166020820180517bffffffffffffffffffffffffffffffffffffffffffffffffffffffff8381831617835250505050610f2d565b50505050565b6000610f8f826040518060400160405280602081526020017f5361666545524332303a206c6f772d6c6576656c2063616c6c206661696c65648152508573ffffffffffffffffffffffffffffffffffffffff16610ff49092919063ffffffff16565b9050600081511115610fef5780806020019051810190610faf9190611a0c565b610fee576040517f08c379a0000000000000000000000000000000000000000000000000000000008152600401610fe590611aab565b60405180910390fd5b5b505050565b6060611003848460008561100c565b90509392505050565b606082471015611051576040517f08c379a000000000000000000000000000000000000000000000000000000000815260040161104890611b3d565b60405180910390fd5b61105a85611120565b611099576040517f08c379a000000000000000000000000000000000000000000000000000000000815260040161109090611ba9565b60405180910390fd5b6000808673ffffffffffffffffffffffffffffffffffffffff1685876040516110c29190611c43565b60006040518083038185875af1925050503d80600081146110ff576040519150601f19603f3d011682016040523d82523d6000602084013e611104565b606091505b5091509150611114828286611133565b92505050949350505050565b600080823b905060008111915050919050565b6060831561114357829050611193565b6000835111156111565782518084602001fd5b816040517f08c379a000000000000000000000000000000000000000000000000000000000815260040161118a9190611caf565b60405180910390fd5b9392505050565b600080fd5b600073ffffffffffffffffffffffffffffffffffffffff82169050919050565b60006111ca8261119f565b9050919050565b6111da816111bf565b81146111e557600080fd5b50565b6000813590506111f7816111d1565b92915050565b6000602082840312156112135761121261119a565b5b6000611221848285016111e8565b91505092915050565b60008115159050919050565b61123f8161122a565b82525050565b6000819050919050565b61125881611245565b82525050565b60006060820190506112736000830186611236565b611280602083018561124f565b61128d604083018461124f565b949350505050565b61129e81611245565b81146112a957600080fd5b50565b6000813590506112bb81611295565b92915050565b6000602082840312156112d7576112d661119a565b5b60006112e5848285016112ac565b91505092915050565b6000604082019050611303600083018561124f565b611310602083018461124f565b9392505050565b600060208201905061132c600083018461124f565b92915050565b61133b816111bf565b82525050565b60006020820190506113566000830184611332565b92915050565b6000819050919050565b600061138161137c6113778461119f565b61135c565b61119f565b9050919050565b600061139382611366565b9050919050565b60006113a582611388565b9050919050565b6113b58161139a565b82525050565b60006020820190506113d060008301846113ac565b92915050565b600082825260208201905092915050565b7f556e5374616b6520616d6f756e74206d757374206265203e2030000000000000600082015250565b600061141d601a836113d6565b9150611428826113e7565b602082019050919050565b6000602082019050818103600083015261144c81611410565b9050919050565b7f43616e6e6f7420756e7374616b6520696e20636f6f6c646f776e20706572696f60008201527f6400000000000000000000000000000000000000000000000000000000000000602082015250565b60006114af6021836113d6565b91506114ba82611453565b604082019050919050565b600060208201905081810360008301526114de816114a2565b9050919050565b7f4e6f205374616b65730000000000000000000000000000000000000000000000600082015250565b600061151b6009836113d6565b9150611526826114e5565b602082019050919050565b6000602082019050818103600083015261154a8161150e565b9050919050565b7f556e7374616b6520616d74203e207374616b656420616d740000000000000000600082015250565b60006115876018836113d6565b915061159282611551565b602082019050919050565b600060208201905081810360008301526115b68161157a565b9050919050565b6000815190506115cc81611295565b92915050565b6000602082840312156115e8576115e761119a565b5b60006115f6848285016115bd565b91505092915050565b7f436f6e74726163742062616c616e6365203c207374616b6564204253434d656d60008201527f6570616400000000000000000000000000000000000000000000000000000000602082015250565b600061165b6024836113d6565b9150611666826115ff565b604082019050919050565b6000602082019050818103600083015261168a8161164e565b9050919050565b7f4e487b7100000000000000000000000000000000000000000000000000000000600052601160045260246000fd5b60006116cb82611245565b91506116d683611245565b9250828210156116e9576116e8611691565b5b828203905092915050565b7f4f776e61626c653a2063616c6c6572206973206e6f7420746865206f776e6572600082015250565b600061172a6020836113d6565b9150611735826116f4565b602082019050919050565b600060208201905081810360008301526117598161171d565b9050919050565b7f5374616b6520616d6f756e74206d757374206265203e20300000000000000000600082015250565b60006117966018836113d6565b91506117a182611760565b602082019050919050565b600060208201905081810360008301526117c581611789565b9050919050565b7f43616c6c65722062616c616e6365203c20616d6f756e74000000000000000000600082015250565b60006118026017836113d6565b915061180d826117cc565b602082019050919050565b60006020820190508181036000830152611831816117f5565b9050919050565b600061184382611245565b915061184e83611245565b9250827fffffffffffffffffffffffffffffffffffffffffffffffffffffffffffffffff0382111561188357611882611691565b5b828201905092915050565b7f4f776e61626c653a206e6577206f776e657220697320746865207a65726f206160008201527f6464726573730000000000000000000000000000000000000000000000000000602082015250565b60006118ea6026836113d6565b91506118f58261188e565b604082019050919050565b60006020820190508181036000830152611919816118dd565b9050919050565b7f4e487b7100000000000000000000000000000000000000000000000000000000600052601260045260246000fd5b600061195a82611245565b915061196583611245565b92508261197557611974611920565b5b828204905092915050565b60006040820190506119956000830185611332565b6119a2602083018461124f565b9392505050565b60006060820190506119be6000830186611332565b6119cb6020830185611332565b6119d8604083018461124f565b949350505050565b6119e98161122a565b81146119f457600080fd5b50565b600081519050611a06816119e0565b92915050565b600060208284031215611a2257611a2161119a565b5b6000611a30848285016119f7565b91505092915050565b7f5361666545524332303a204552433230206f7065726174696f6e20646964206e60008201527f6f74207375636365656400000000000000000000000000000000000000000000602082015250565b6000611a95602a836113d6565b9150611aa082611a39565b604082019050919050565b60006020820190508181036000830152611ac481611a88565b9050919050565b7f416464726573733a20696e73756666696369656e742062616c616e636520666f60008201527f722063616c6c0000000000000000000000000000000000000000000000000000602082015250565b6000611b276026836113d6565b9150611b3282611acb565b604082019050919050565b60006020820190508181036000830152611b5681611b1a565b9050919050565b7f416464726573733a2063616c6c20746f206e6f6e2d636f6e7472616374000000600082015250565b6000611b93601d836113d6565b9150611b9e82611b5d565b602082019050919050565b60006020820190508181036000830152611bc281611b86565b9050919050565b600081519050919050565b600081905092915050565b60005b83811015611bfd578082015181840152602081019050611be2565b83811115611c0c576000848401525b50505050565b6000611c1d82611bc9565b611c278185611bd4565b9350611c37818560208601611bdf565b80840191505092915050565b6000611c4f8284611c12565b915081905092915050565b600081519050919050565b6000601f19601f8301169050919050565b6000611c8182611c5a565b611c8b81856113d6565b9350611c9b818560208601611bdf565b611ca481611c65565b840191505092915050565b60006020820190508181036000830152611cc98184611c76565b90509291505056fea26469706673582212204c70e7f2298ab87036068842348369e002140cf66f248982e7b649397cdbeb7164736f6c634300080a0033",
    "immutableReferences": {},
    "source": "// SPDX-License-Identifier: MIT\r\npragma solidity >=0.4.21 <0.9.0;\r\n\r\nimport \"@openzeppelin/contracts/token/ERC20/utils/SafeERC20.sol\";\r\nimport \"@openzeppelin/contracts/token/ERC20/IERC20.sol\";\r\nimport \"@openzeppelin/contracts/access/Ownable.sol\";\r\n\r\n/// @title StakeBSCM\r\n/// @notice The stake BSCM contract for staking and unstaking BSCM\r\ncontract StakeBSCM is Ownable {\r\n    using SafeERC20 for IERC20;\r\n\r\n    // BSCMemepad Contract Address\r\n    // solhint-disable-next-line var-name-mixedcase\r\n    IERC20 public BSCMemepadContract;\r\n\r\n    // List of Stakers, helpful when fetching stakers report\r\n    address[] public stakers;\r\n\r\n    struct Staker {\r\n        bool isPresent;\r\n        uint256 stakedAt;\r\n        uint256 amount;\r\n    }\r\n\r\n    uint256 public totalBSCMemepadStaked;\r\n    mapping(address => Staker) public stakerInfo;\r\n\r\n    event Stake(address indexed staker, uint256 amount, uint256 stakedAt);\r\n    event UnStake(address indexed unStaker, uint256 amount, uint256 unStakedAt);\r\n\r\n    constructor(IERC20 bscmemepadContractAddress) {\r\n        require(address(bscmemepadContractAddress) != address(0), \"Cannot be address zero\");\r\n        BSCMemepadContract = bscmemepadContractAddress;\r\n    }\r\n\r\n    /**\r\n     * @dev Contract might receive/hold BNB as part of the maintenance process.\r\n     * The receive function is executed on a call to the contract with empty calldata.\r\n     */\r\n    // solhint-disable-next-line no-empty-blocks\r\n    receive() external payable {}\r\n\r\n    /**\r\n     * @dev The fallback function is executed on a call to the contract if\r\n     * none of the other functions match the given function signature.\r\n     */\r\n    fallback() external payable {}\r\n\r\n    /**\r\n     * @dev To stake BSCMemepad in the contract\r\n     *\r\n     * Requirements:\r\n     * - amount must be greater than 0\r\n     * - BSCMemepad balance of Staker must be greater than or equal to amount\r\n     */\r\n    function stake(uint256 amount) public {\r\n        require(amount > 0, \"Stake amount must be > 0\");\r\n        uint256 stakerBSCMBalance = BSCMemepadContract.balanceOf(msg.sender);\r\n        require(stakerBSCMBalance >= amount, \"Caller balance < amount\");\r\n        Staker memory _staker = stakerInfo[msg.sender];\r\n        if (!_staker.isPresent) {\r\n            _staker.isPresent = true;\r\n            stakers.push(msg.sender);\r\n            //solhint-disable-next-line not-rely-on-time\r\n            _staker.stakedAt = block.timestamp;\r\n        }\r\n\r\n        // It implies a staker has already staked then unstaked and now again is staking\r\n        if (_staker.isPresent && (_staker.stakedAt == 0) && (_staker.amount == 0)) {\r\n            //solhint-disable-next-line not-rely-on-time\r\n            _staker.stakedAt = block.timestamp;\r\n        }\r\n\r\n        BSCMemepadContract.safeTransferFrom(msg.sender, address(this), amount);\r\n        totalBSCMemepadStaked += amount;\r\n        _staker.amount += amount;\r\n        stakerInfo[msg.sender] = _staker; // Write Staker info to contract storage\r\n        emit Stake(msg.sender, amount, _staker.stakedAt);\r\n    }\r\n\r\n    /**\r\n     * @dev To unstake BSCMemepad from the contract\r\n     *\r\n     * Requirements:\r\n     * - Caller's staked BSCMemepad must be greater than 0\r\n     * - Unstake amount must be less than or equal to the staked BSCMemepad\r\n     * - Contract's BSCMemepad balance must be greater than staked BSCMemepad\r\n     */\r\n    function unStake(uint256 amount) public {\r\n        require(amount > 0, \"UnStake amount must be > 0\");\r\n\r\n        Staker memory _staker = stakerInfo[msg.sender];\r\n\r\n        uint256 daysStakedFor = stakedDays(_staker.stakedAt);\r\n        require(daysStakedFor >= 7, \"Cannot unstake in cooldown period\");\r\n\r\n        require(_staker.amount > 0, \"No Stakes\");\r\n        require(amount <= _staker.amount, \"Unstake amt > staked amt\");\r\n\r\n        require(BSCMemepadContract.balanceOf(address(this)) >= amount, \"Contract balance < staked BSCMemepad\");\r\n\r\n        _staker.amount -= amount;\r\n        if (_staker.amount == 0) {\r\n            _staker.stakedAt = 0;\r\n        }\r\n\r\n        totalBSCMemepadStaked -= amount;\r\n        stakerInfo[msg.sender] = _staker; // Write Staker info to contract storage\r\n\r\n        BSCMemepadContract.safeTransfer(msg.sender, amount);\r\n\r\n        emit UnStake(msg.sender, amount, block.timestamp); //solhint-disable-line not-rely-on-time\r\n    }\r\n\r\n    /**\r\n     * @dev Returns the caller's staking details\r\n     */\r\n    function myStakes() public view returns (uint256 stakedBSCMemepad, uint256 daysStakedFor) {\r\n        Staker memory _staker = stakerInfo[msg.sender];\r\n        stakedBSCMemepad = _staker.amount;\r\n        if (_staker.stakedAt > 0) {\r\n            daysStakedFor = stakedDays(_staker.stakedAt);\r\n        } else {\r\n            daysStakedFor = 0;\r\n        }\r\n    }\r\n\r\n    /**\r\n     * @dev Returns the total number of stakers\r\n     */\r\n    function totalStakers() public view returns (uint256) {\r\n        return stakers.length;\r\n    }\r\n\r\n    /**\r\n     * @dev Returns the number of days for which BSCMemepad was staked\r\n     */\r\n    function stakedDays(uint256 stakedAt) internal view returns (uint256) {\r\n        //solhint-disable-next-line not-rely-on-time\r\n        return (block.timestamp - stakedAt) / 1 days;\r\n    }\r\n}",
    "sourcePath": "C:\\Users\\rodri\\web3_projects\\deploy-staking\\contracts\\StakeBSCM.sol",
    "compiler": {
        "name": "solc",
        "version": "0.8.10+commit.fc410830.Emscripten.clang"
    },
    "schemaVersion": "3.4.3",
    "updatedAt": "2021-11-26T06:50:32.983Z",
    "networkType": "ethereum",
    "devdoc": {
        "kind": "dev",
        "methods": {
            "myStakes()": {
                "details": "Returns the caller's staking details"
            },
            "owner()": {
                "details": "Returns the address of the current owner."
            },
            "renounceOwnership()": {
                "details": "Leaves the contract without owner. It will not be possible to call `onlyOwner` functions anymore. Can only be called by the current owner. NOTE: Renouncing ownership will leave the contract without an owner, thereby removing any functionality that is only available to the owner."
            },
            "stake(uint256)": {
                "details": "To stake BSCMemepad in the contract Requirements: - amount must be greater than 0 - BSCMemepad balance of Staker must be greater than or equal to amount"
            },
            "totalStakers()": {
                "details": "Returns the total number of stakers"
            },
            "transferOwnership(address)": {
                "details": "Transfers ownership of the contract to a new account (`newOwner`). Can only be called by the current owner."
            },
            "unStake(uint256)": {
                "details": "To unstake BSCMemepad from the contract Requirements: - Caller's staked BSCMemepad must be greater than 0 - Unstake amount must be less than or equal to the staked BSCMemepad - Contract's BSCMemepad balance must be greater than staked BSCMemepad"
            }
        },
        "title": "StakeBSCM",
        "version": 1
    },
    "userdoc": {
        "kind": "user",
        "methods": {},
        "notice": "The stake BSCM contract for staking and unstaking BSCM",
        "version": 1
    }
}