{
  "_format": "hh-sol-artifact-1",
  "contractName": "StakeBSCM",
  "sourceName": "contracts/StakeBSCM.sol",
  "abi": [
    {
      "inputs": [
        {
          "internalType": "contract IERC20",
          "name": "bscmemepadContractAddress",
          "type": "address"
        }
      ],
      "stateMutability": "nonpayable",
      "type": "constructor"
    },
    {
      "anonymous": false,
      "inputs": [
        {
          "indexed": true,
          "internalType": "address",
          "name": "previousOwner",
          "type": "address"
        },
        {
          "indexed": true,
          "internalType": "address",
          "name": "newOwner",
          "type": "address"
        }
      ],
      "name": "OwnershipTransferred",
      "type": "event"
    },
    {
      "anonymous": false,
      "inputs": [
        {
          "indexed": true,
          "internalType": "address",
          "name": "staker",
          "type": "address"
        },
        {
          "indexed": false,
          "internalType": "uint256",
          "name": "amount",
          "type": "uint256"
        },
        {
          "indexed": false,
          "internalType": "uint256",
          "name": "stakedAt",
          "type": "uint256"
        }
      ],
      "name": "Stake",
      "type": "event"
    },
    {
      "anonymous": false,
      "inputs": [
        {
          "indexed": true,
          "internalType": "address",
          "name": "unStaker",
          "type": "address"
        },
        {
          "indexed": false,
          "internalType": "uint256",
          "name": "amount",
          "type": "uint256"
        },
        {
          "indexed": false,
          "internalType": "uint256",
          "name": "unStakedAt",
          "type": "uint256"
        }
      ],
      "name": "UnStake",
      "type": "event"
    },
    {
      "stateMutability": "payable",
      "type": "fallback"
    },
    {
      "inputs": [],
      "name": "BSCMemepadContract",
      "outputs": [
        {
          "internalType": "contract IERC20",
          "name": "",
          "type": "address"
        }
      ],
      "stateMutability": "view",
      "type": "function"
    },
    {
      "inputs": [],
      "name": "myStakes",
      "outputs": [
        {
          "internalType": "uint256",
          "name": "stakedBSCMemepad",
          "type": "uint256"
        },
        {
          "internalType": "uint256",
          "name": "daysStakedFor",
          "type": "uint256"
        }
      ],
      "stateMutability": "view",
      "type": "function"
    },
    {
      "inputs": [],
      "name": "owner",
      "outputs": [
        {
          "internalType": "address",
          "name": "",
          "type": "address"
        }
      ],
      "stateMutability": "view",
      "type": "function"
    },
    {
      "inputs": [],
      "name": "renounceOwnership",
      "outputs": [],
      "stateMutability": "nonpayable",
      "type": "function"
    },
    {
      "inputs": [
        {
          "internalType": "uint256",
          "name": "amount",
          "type": "uint256"
        }
      ],
      "name": "stake",
      "outputs": [],
      "stateMutability": "nonpayable",
      "type": "function"
    },
    {
      "inputs": [
        {
          "internalType": "address",
          "name": "",
          "type": "address"
        }
      ],
      "name": "stakerInfo",
      "outputs": [
        {
          "internalType": "bool",
          "name": "isPresent",
          "type": "bool"
        },
        {
          "internalType": "uint256",
          "name": "stakedAt",
          "type": "uint256"
        },
        {
          "internalType": "uint256",
          "name": "amount",
          "type": "uint256"
        }
      ],
      "stateMutability": "view",
      "type": "function"
    },
    {
      "inputs": [
        {
          "internalType": "uint256",
          "name": "",
          "type": "uint256"
        }
      ],
      "name": "stakers",
      "outputs": [
        {
          "internalType": "address",
          "name": "",
          "type": "address"
        }
      ],
      "stateMutability": "view",
      "type": "function"
    },
    {
      "inputs": [],
      "name": "totalBSCMemepadStaked",
      "outputs": [
        {
          "internalType": "uint256",
          "name": "",
          "type": "uint256"
        }
      ],
      "stateMutability": "view",
      "type": "function"
    },
    {
      "inputs": [],
      "name": "totalStakers",
      "outputs": [
        {
          "internalType": "uint256",
          "name": "",
          "type": "uint256"
        }
      ],
      "stateMutability": "view",
      "type": "function"
    },
    {
      "inputs": [
        {
          "internalType": "address",
          "name": "newOwner",
          "type": "address"
        }
      ],
      "name": "transferOwnership",
      "outputs": [],
      "stateMutability": "nonpayable",
      "type": "function"
    },
    {
      "inputs": [
        {
          "internalType": "uint256",
          "name": "amount",
          "type": "uint256"
        }
      ],
      "name": "unStake",
      "outputs": [],
      "stateMutability": "nonpayable",
      "type": "function"
    },
    {
      "stateMutability": "payable",
      "type": "receive"
    }
  ],
  "bytecode": "0x608060405234801561001057600080fd5b506040516110ba3803806110ba8339818101604052602081101561003357600080fd5b5051600061003f610109565b600080546001600160a01b0319166001600160a01b0383169081178255604051929350917f8be0079c531659141344cd1fd0a4f28419497f9722a3daafe3b4186f6b6457e0908290a3506001600160a01b0381166100e4576040805162461bcd60e51b815260206004820152601660248201527f43616e6e6f742062652061646472657373207a65726f00000000000000000000604482015290519081900360640190fd5b600180546001600160a01b0319166001600160a01b039290921691909117905561010d565b3390565b610f9e8061011c6000396000f3fe6080604052600436106100c05760003560e01c80638da5cb5b11610074578063f2fde38b1161004e578063f2fde38b14610220578063f899d5f914610253578063fd5e6dd114610268576100c7565b80638da5cb5b146101b0578063a3a46c6a146101e1578063a694fc3a146101f6576100c7565b8063715018a6116100a5578063715018a61461014657806371bb3d011461015b5780638698903814610189576100c7565b80634e745f1f146100c95780635d3eea911461011c576100c7565b366100c757005b005b3480156100d557600080fd5b506100fc600480360360208110156100ec57600080fd5b50356001600160a01b0316610292565b604080519315158452602084019290925282820152519081900360600190f35b34801561012857600080fd5b506100c76004803603602081101561013f57600080fd5b50356102b7565b34801561015257600080fd5b506100c76105b1565b34801561016757600080fd5b5061017061067c565b6040805192835260208301919091528051918290030190f35b34801561019557600080fd5b5061019e6106e9565b60408051918252519081900360200190f35b3480156101bc57600080fd5b506101c56106ef565b604080516001600160a01b039092168252519081900360200190f35b3480156101ed57600080fd5b506101c56106fe565b34801561020257600080fd5b506100c76004803603602081101561021957600080fd5b503561070d565b34801561022c57600080fd5b506100c76004803603602081101561024357600080fd5b50356001600160a01b0316610996565b34801561025f57600080fd5b5061019e610ab7565b34801561027457600080fd5b506101c56004803603602081101561028b57600080fd5b5035610abd565b60046020526000908152604090208054600182015460029092015460ff909116919083565b6000811161030c576040805162461bcd60e51b815260206004820152601a60248201527f556e5374616b6520616d6f756e74206d757374206265203e2030000000000000604482015290519081900360640190fd5b610314610eb3565b503360009081526004602090815260408083208151606081018352815460ff1615158152600182015493810184905260029091015491810191909152919061035b90610ae7565b9050600781101561039d5760405162461bcd60e51b8152600401808060200182810382526021815260200180610ed76021913960400191505060405180910390fd5b60008260400151116103f6576040805162461bcd60e51b815260206004820152600960248201527f4e6f205374616b65730000000000000000000000000000000000000000000000604482015290519081900360640190fd5b816040015183111561044f576040805162461bcd60e51b815260206004820152601860248201527f556e7374616b6520616d74203e207374616b656420616d740000000000000000604482015290519081900360640190fd5b600154604080516370a0823160e01b8152306004820152905185926001600160a01b0316916370a08231916024808301926020929190829003018186803b15801561049957600080fd5b505afa1580156104ad573d6000803e3d6000fd5b505050506040513d60208110156104c357600080fd5b505110156105025760405162461bcd60e51b8152600401808060200182810382526024815260200180610f1e6024913960400191505060405180910390fd5b6040820180518490039081905261051b57600060208301525b600380548490039055336000818152600460209081526040918290208551815460ff1916901515178155908501516001828101919091559185015160029091015554610573916001600160a01b039091169085610afe565b60408051848152426020820152815133927f54a9763035584fc4fcad1bc4e0e7a83f93e016f50ae32bd527530a77257393ee928290030190a2505050565b6105b9610b6a565b6001600160a01b03166105ca6106ef565b6001600160a01b031614610625576040805162461bcd60e51b815260206004820181905260248201527f4f776e61626c653a2063616c6c6572206973206e6f7420746865206f776e6572604482015290519081900360640190fd5b600080546040516001600160a01b03909116907f8be0079c531659141344cd1fd0a4f28419497f9722a3daafe3b4186f6b6457e0908390a36000805473ffffffffffffffffffffffffffffffffffffffff19169055565b600080610687610eb3565b50336000908152600460209081526040918290208251606081018452815460ff16151581526001820154928101839052600290910154928101839052919350156106df576106d88160200151610ae7565b91506106e4565b600091505b509091565b60025490565b6000546001600160a01b031690565b6001546001600160a01b031681565b60008111610762576040805162461bcd60e51b815260206004820152601860248201527f5374616b6520616d6f756e74206d757374206265203e20300000000000000000604482015290519081900360640190fd5b600154604080516370a0823160e01b815233600482015290516000926001600160a01b0316916370a08231916024808301926020929190829003018186803b1580156107ad57600080fd5b505afa1580156107c1573d6000803e3d6000fd5b505050506040513d60208110156107d757600080fd5b5051905081811015610830576040805162461bcd60e51b815260206004820152601760248201527f43616c6c65722062616c616e6365203c20616d6f756e74000000000000000000604482015290519081900360640190fd5b610838610eb3565b50336000908152600460209081526040918290208251606081018452815460ff161515808252600183015493820193909352600290910154928101929092526108d25760018082526002805491820181556000527f405787fa12a823e0f2b7631cc41b3ba8828b3321ca811111fa75cd3aa3bb5ace01805473ffffffffffffffffffffffffffffffffffffffff1916331790554260208201525b805180156108e257506020810151155b80156108f057506040810151155b156108fc574260208201525b600154610914906001600160a01b0316333086610b6e565b6003805484019055604081810180518501815233600081815260046020908152908490208551815460ff191690151517815581860151600182018190559351600290910155835187815290810192909252825190927f5af417134f72a9d41143ace85b0a26dce6f550f894f2cbc1eeee8810603d91b6928290030190a2505050565b61099e610b6a565b6001600160a01b03166109af6106ef565b6001600160a01b031614610a0a576040805162461bcd60e51b815260206004820181905260248201527f4f776e61626c653a2063616c6c6572206973206e6f7420746865206f776e6572604482015290519081900360640190fd5b6001600160a01b038116610a4f5760405162461bcd60e51b8152600401808060200182810382526026815260200180610ef86026913960400191505060405180910390fd5b600080546040516001600160a01b03808516939216917f8be0079c531659141344cd1fd0a4f28419497f9722a3daafe3b4186f6b6457e091a36000805473ffffffffffffffffffffffffffffffffffffffff19166001600160a01b0392909216919091179055565b60035481565b60028181548110610acd57600080fd5b6000918252602090912001546001600160a01b0316905081565b60006201518082420381610af757fe5b0492915050565b604080516001600160a01b038416602482015260448082018490528251808303909101815260649091019091526020810180517bffffffffffffffffffffffffffffffffffffffffffffffffffffffff1663a9059cbb60e01b179052610b65908490610be3565b505050565b3390565b604080516001600160a01b0380861660248301528416604482015260648082018490528251808303909101815260849091019091526020810180517bffffffffffffffffffffffffffffffffffffffffffffffffffffffff166323b872dd60e01b179052610bdd908590610be3565b50505050565b6060610c38826040518060400160405280602081526020017f5361666545524332303a206c6f772d6c6576656c2063616c6c206661696c6564815250856001600160a01b0316610c949092919063ffffffff16565b805190915015610b6557808060200190516020811015610c5757600080fd5b5051610b655760405162461bcd60e51b815260040180806020018281038252602a815260200180610f68602a913960400191505060405180910390fd5b6060610ca38484600085610cad565b90505b9392505050565b606082471015610cee5760405162461bcd60e51b8152600401808060200182810382526026815260200180610f426026913960400191505060405180910390fd5b610cf785610e09565b610d48576040805162461bcd60e51b815260206004820152601d60248201527f416464726573733a2063616c6c20746f206e6f6e2d636f6e7472616374000000604482015290519081900360640190fd5b60006060866001600160a01b031685876040518082805190602001908083835b60208310610d875780518252601f199092019160209182019101610d68565b6001836020036101000a03801982511681845116808217855250505050505090500191505060006040518083038185875af1925050503d8060008114610de9576040519150601f19603f3d011682016040523d82523d6000602084013e610dee565b606091505b5091509150610dfe828286610e0f565b979650505050505050565b3b151590565b60608315610e1e575081610ca6565b825115610e2e5782518084602001fd5b8160405162461bcd60e51b81526004018080602001828103825283818151815260200191508051906020019080838360005b83811015610e78578181015183820152602001610e60565b50505050905090810190601f168015610ea55780820380516001836020036101000a031916815260200191505b509250505060405180910390fd5b60405180606001604052806000151581526020016000815260200160008152509056fe43616e6e6f7420756e7374616b6520696e20636f6f6c646f776e20706572696f644f776e61626c653a206e6577206f776e657220697320746865207a65726f2061646472657373436f6e74726163742062616c616e6365203c207374616b6564204253434d656d65706164416464726573733a20696e73756666696369656e742062616c616e636520666f722063616c6c5361666545524332303a204552433230206f7065726174696f6e20646964206e6f742073756363656564a164736f6c6343000705000a",
  "linkReferences": {},
  "deployedLinkReferences": {}
}