{
  "_format": "hh-sol-artifact-1",
  "contractName": "TierIDOPool",
  "sourceName": "contracts/TierIDOPool.sol",
  "abi": [
    {
      "inputs": [
        {
          "internalType": "address",
          "name": "_token",
          "type": "address"
        },
        {
          "internalType": "address",
          "name": "_currency",
          "type": "address"
        },
        {
          "internalType": "uint256",
          "name": "_round1Start",
          "type": "uint256"
        },
        {
          "internalType": "uint256",
          "name": "_round1End",
          "type": "uint256"
        },
        {
          "internalType": "uint256",
          "name": "_round2Start",
          "type": "uint256"
        },
        {
          "internalType": "uint256",
          "name": "_round2End",
          "type": "uint256"
        },
        {
          "internalType": "uint256",
          "name": "_releaseTime",
          "type": "uint256"
        },
        {
          "internalType": "uint256",
          "name": "_price",
          "type": "uint256"
        },
        {
          "internalType": "uint256",
          "name": "_totalAmount",
          "type": "uint256"
        },
        {
          "internalType": "uint256",
          "name": "_maxAmountThatCanBeInvestedInTier1",
          "type": "uint256"
        },
        {
          "internalType": "uint256",
          "name": "_maxAmountThatCanBeInvestedInTier2",
          "type": "uint256"
        },
        {
          "internalType": "uint256",
          "name": "_maxAmountThatCanBeInvestedInTier3",
          "type": "uint256"
        },
        {
          "internalType": "uint256",
          "name": "_maxAmountThatCanBeInvestedInTier4",
          "type": "uint256"
        }
      ],
      "stateMutability": "nonpayable",
      "type": "constructor"
    },
    {
      "anonymous": false,
      "inputs": [
        {
          "indexed": true,
          "internalType": "address",
          "name": "_burnAddress",
          "type": "address"
        },
        {
          "indexed": false,
          "internalType": "uint256",
          "name": "_amount",
          "type": "uint256"
        }
      ],
      "name": "Burn",
      "type": "event"
    },
    {
      "anonymous": false,
      "inputs": [
        {
          "indexed": true,
          "internalType": "address",
          "name": "_user",
          "type": "address"
        },
        {
          "indexed": false,
          "internalType": "uint256",
          "name": "_amount",
          "type": "uint256"
        },
        {
          "indexed": false,
          "internalType": "uint256",
          "name": "_tokenAmount",
          "type": "uint256"
        }
      ],
      "name": "Buy",
      "type": "event"
    },
    {
      "anonymous": false,
      "inputs": [
        {
          "indexed": true,
          "internalType": "address",
          "name": "_user",
          "type": "address"
        },
        {
          "indexed": false,
          "internalType": "uint256",
          "name": "_amount",
          "type": "uint256"
        }
      ],
      "name": "Claim",
      "type": "event"
    },
    {
      "anonymous": false,
      "inputs": [
        {
          "indexed": true,
          "internalType": "address",
          "name": "_user",
          "type": "address"
        },
        {
          "indexed": false,
          "internalType": "uint256",
          "name": "_amount",
          "type": "uint256"
        }
      ],
      "name": "EmergencyWithdraw",
      "type": "event"
    },
    {
      "anonymous": false,
      "inputs": [
        {
          "indexed": true,
          "internalType": "address",
          "name": "previousOwner",
          "type": "address"
        },
        {
          "indexed": true,
          "internalType": "address",
          "name": "newOwner",
          "type": "address"
        }
      ],
      "name": "OwnershipTransferred",
      "type": "event"
    },
    {
      "anonymous": false,
      "inputs": [
        {
          "indexed": true,
          "internalType": "address",
          "name": "_user",
          "type": "address"
        },
        {
          "indexed": false,
          "internalType": "uint256",
          "name": "_amount",
          "type": "uint256"
        }
      ],
      "name": "Withdraw",
      "type": "event"
    },
    {
      "inputs": [
        {
          "internalType": "address[]",
          "name": "_users",
          "type": "address[]"
        },
        {
          "internalType": "uint8",
          "name": "_tier",
          "type": "uint8"
        }
      ],
      "name": "addToPoolWhiteList",
      "outputs": [
        {
          "internalType": "bool",
          "name": "",
          "type": "bool"
        }
      ],
      "stateMutability": "nonpayable",
      "type": "function"
    },
    {
      "inputs": [
        {
          "internalType": "address",
          "name": "",
          "type": "address"
        }
      ],
      "name": "addressBelongsToTier",
      "outputs": [
        {
          "internalType": "uint8",
          "name": "",
          "type": "uint8"
        }
      ],
      "stateMutability": "view",
      "type": "function"
    },
    {
      "inputs": [],
      "name": "availableTokens",
      "outputs": [
        {
          "internalType": "uint256",
          "name": "",
          "type": "uint256"
        }
      ],
      "stateMutability": "view",
      "type": "function"
    },
    {
      "inputs": [
        {
          "internalType": "uint256",
          "name": "amount",
          "type": "uint256"
        }
      ],
      "name": "buy",
      "outputs": [],
      "stateMutability": "nonpayable",
      "type": "function"
    },
    {
      "inputs": [],
      "name": "claimTokens",
      "outputs": [],
      "stateMutability": "nonpayable",
      "type": "function"
    },
    {
      "inputs": [],
      "name": "currency",
      "outputs": [
        {
          "internalType": "contract IERC20",
          "name": "",
          "type": "address"
        }
      ],
      "stateMutability": "view",
      "type": "function"
    },
    {
      "inputs": [],
      "name": "emergencyWithdraw",
      "outputs": [],
      "stateMutability": "nonpayable",
      "type": "function"
    },
    {
      "inputs": [
        {
          "internalType": "address",
          "name": "_user",
          "type": "address"
        }
      ],
      "name": "getAddressTier",
      "outputs": [
        {
          "internalType": "uint8",
          "name": "",
          "type": "uint8"
        }
      ],
      "stateMutability": "view",
      "type": "function"
    },
    {
      "inputs": [],
      "name": "getInvestors",
      "outputs": [
        {
          "internalType": "address[]",
          "name": "",
          "type": "address[]"
        },
        {
          "internalType": "uint256[]",
          "name": "",
          "type": "uint256[]"
        }
      ],
      "stateMutability": "view",
      "type": "function"
    },
    {
      "inputs": [],
      "name": "getPoolWhiteLists",
      "outputs": [
        {
          "internalType": "address[]",
          "name": "",
          "type": "address[]"
        }
      ],
      "stateMutability": "view",
      "type": "function"
    },
    {
      "inputs": [],
      "name": "numberParticipants",
      "outputs": [
        {
          "internalType": "uint256",
          "name": "",
          "type": "uint256"
        }
      ],
      "stateMutability": "view",
      "type": "function"
    },
    {
      "inputs": [],
      "name": "owner",
      "outputs": [
        {
          "internalType": "address",
          "name": "",
          "type": "address"
        }
      ],
      "stateMutability": "view",
      "type": "function"
    },
    {
      "inputs": [],
      "name": "platformToken",
      "outputs": [
        {
          "internalType": "contract IERC20",
          "name": "",
          "type": "address"
        }
      ],
      "stateMutability": "view",
      "type": "function"
    },
    {
      "inputs": [
        {
          "internalType": "address",
          "name": "",
          "type": "address"
        }
      ],
      "name": "poolWhiteList",
      "outputs": [
        {
          "internalType": "bool",
          "name": "",
          "type": "bool"
        }
      ],
      "stateMutability": "view",
      "type": "function"
    },
    {
      "inputs": [],
      "name": "price",
      "outputs": [
        {
          "internalType": "uint256",
          "name": "",
          "type": "uint256"
        }
      ],
      "stateMutability": "view",
      "type": "function"
    },
    {
      "inputs": [],
      "name": "releaseTime",
      "outputs": [
        {
          "internalType": "uint256",
          "name": "",
          "type": "uint256"
        }
      ],
      "stateMutability": "view",
      "type": "function"
    },
    {
      "inputs": [],
      "name": "renounceOwnership",
      "outputs": [],
      "stateMutability": "nonpayable",
      "type": "function"
    },
    {
      "inputs": [],
      "name": "round1End",
      "outputs": [
        {
          "internalType": "uint256",
          "name": "",
          "type": "uint256"
        }
      ],
      "stateMutability": "view",
      "type": "function"
    },
    {
      "inputs": [],
      "name": "round1Start",
      "outputs": [
        {
          "internalType": "uint256",
          "name": "",
          "type": "uint256"
        }
      ],
      "stateMutability": "view",
      "type": "function"
    },
    {
      "inputs": [],
      "name": "round2End",
      "outputs": [
        {
          "internalType": "uint256",
          "name": "",
          "type": "uint256"
        }
      ],
      "stateMutability": "view",
      "type": "function"
    },
    {
      "inputs": [],
      "name": "round2Start",
      "outputs": [
        {
          "internalType": "uint256",
          "name": "",
          "type": "uint256"
        }
      ],
      "stateMutability": "view",
      "type": "function"
    },
    {
      "inputs": [
        {
          "internalType": "address",
          "name": "",
          "type": "address"
        }
      ],
      "name": "sales",
      "outputs": [
        {
          "internalType": "address",
          "name": "investor",
          "type": "address"
        },
        {
          "internalType": "uint256",
          "name": "amount",
          "type": "uint256"
        },
        {
          "internalType": "bool",
          "name": "tokensWithdrawn",
          "type": "bool"
        }
      ],
      "stateMutability": "view",
      "type": "function"
    },
    {
      "inputs": [
        {
          "internalType": "address",
          "name": "_platformToken",
          "type": "address"
        }
      ],
      "name": "setPlatformTokenAddress",
      "outputs": [
        {
          "internalType": "bool",
          "name": "",
          "type": "bool"
        }
      ],
      "stateMutability": "nonpayable",
      "type": "function"
    },
    {
      "inputs": [
        {
          "internalType": "uint256[]",
          "name": "_tiersAllocation",
          "type": "uint256[]"
        }
      ],
      "name": "setTierInfo",
      "outputs": [
        {
          "internalType": "bool",
          "name": "",
          "type": "bool"
        }
      ],
      "stateMutability": "nonpayable",
      "type": "function"
    },
    {
      "inputs": [
        {
          "internalType": "uint8",
          "name": "",
          "type": "uint8"
        }
      ],
      "name": "tierAllocations",
      "outputs": [
        {
          "internalType": "uint256",
          "name": "",
          "type": "uint256"
        }
      ],
      "stateMutability": "view",
      "type": "function"
    },
    {
      "inputs": [
        {
          "internalType": "uint8",
          "name": "",
          "type": "uint8"
        }
      ],
      "name": "tierMaxAmountThatCanBeInvested",
      "outputs": [
        {
          "internalType": "uint256",
          "name": "",
          "type": "uint256"
        }
      ],
      "stateMutability": "view",
      "type": "function"
    },
    {
      "inputs": [],
      "name": "token",
      "outputs": [
        {
          "internalType": "contract IERC20",
          "name": "",
          "type": "address"
        }
      ],
      "stateMutability": "view",
      "type": "function"
    },
    {
      "inputs": [
        {
          "internalType": "uint8",
          "name": "",
          "type": "uint8"
        }
      ],
      "name": "tokensAvailableInTier",
      "outputs": [
        {
          "internalType": "uint256",
          "name": "",
          "type": "uint256"
        }
      ],
      "stateMutability": "view",
      "type": "function"
    },
    {
      "inputs": [],
      "name": "totalAmount",
      "outputs": [
        {
          "internalType": "uint256",
          "name": "",
          "type": "uint256"
        }
      ],
      "stateMutability": "view",
      "type": "function"
    },
    {
      "inputs": [],
      "name": "totalAmountSold",
      "outputs": [
        {
          "internalType": "uint256",
          "name": "",
          "type": "uint256"
        }
      ],
      "stateMutability": "view",
      "type": "function"
    },
    {
      "inputs": [
        {
          "internalType": "address",
          "name": "newOwner",
          "type": "address"
        }
      ],
      "name": "transferOwnership",
      "outputs": [],
      "stateMutability": "nonpayable",
      "type": "function"
    },
    {
      "inputs": [],
      "name": "withdraw",
      "outputs": [],
      "stateMutability": "nonpayable",
      "type": "function"
    }
  ],
  "bytecode": "0x60806040523480156200001157600080fd5b506040516200250d3803806200250d83398181016040526101a08110156200003857600080fd5b508051602082015160408301516060840151608085015160a086015160c087015160e08801516101008901516101208a01516101408b01516101608c0151610180909c01519a9b999a989997989697959694959394929391929091906000620000a062000384565b600080546001600160a01b0319166001600160a01b0383169081178255604051929350917f8be0079c531659141344cd1fd0a4f28419497f9722a3daafe3b4186f6b6457e0908290a350600180556001600160a01b038d16620001355760405162461bcd60e51b8152600401808060200182810382526024815260200180620024c66024913960400191505060405180910390fd5b6001600160a01b038c166200017c5760405162461bcd60e51b81526004018080602001828103825260278152602001806200247c6027913960400191505060405180910390fd5b898b10620001bc5760405162461bcd60e51b8152600401808060200182810382526023815260200180620024ea6023913960400191505060405180910390fd5b888a1115620001fd5760405162461bcd60e51b8152600401808060200182810382526023815260200180620024596023913960400191505060405180910390fd5b8789106200023d5760405162461bcd60e51b8152600401808060200182810382526023815260200180620024a36023913960400191505060405180910390fd5b6000851162000293576040805162461bcd60e51b815260206004820152601860248201527f546f74616c20616d6f756e74206d757374206265203e20300000000000000000604482015290519081900360640190fd5b600380546001600160a01b039e8f166001600160a01b031991821617909155600480549d909e169c169b909b178c55600799909955600897909755600995909555600a93909355600f91909155600b55600d819055600c5560166020527f4c4dc693d7db52f85fe052106f4b4b920e78e8ef37dee82878a60ab8585faf49557fcaff291fe014adc6b72a172705750b4cabe8f8667664d2924a166caab2885648557ff06d282f967055cb1eee17e04aa005b9682a620f4bbcfaee55ba78607a3d87ae556000919091527fec061709de2491458f4c981032059d7d19b0e55f45018bac6b3e660bdc959a595562000388565b3390565b6120c180620003986000396000f3fe608060405234801561001057600080fd5b50600436106101f05760003560e01c80638da5cb5b1161010f578063d0ffc9b8116100a2578063e5a6b10f11610071578063e5a6b10f14610620578063ee12c21614610628578063f2fde38b14610680578063fc0c546a146106a6576101f0565b8063d0ffc9b8146105eb578063d1b812cd146105f3578063d96a094a146105fb578063db2e21bc14610618576101f0565b8063b91d4001116100de578063b91d400114610565578063ba69ce331461056d578063c6b9f06a14610593578063c8a13189146105e3576101f0565b80638da5cb5b146103f0578063a035b1fe14610414578063ab383fa91461041c578063b2f5a54c146104c4576101f0565b80634ac67ce61161018757806369bb4dc21161015657806369bb4dc2146103d0578063715018a6146103d857806377445ba6146103e0578063847d34fb146103e8576101f0565b80634ac67ce61461034657806354d89c921461036c5780635a486f9b14610374578063644a986f146103b0576101f0565b80633b7ed505116101c35780633b7ed505146102895780633ccfd60b1461032c57806348c54b9d146103365780634ac0ab1c1461033e576101f0565b80631a39d8ef146101f557806325042fe91461020f57806325ca480b146102495780633a6089cf14610269575b600080fd5b6101fd6106ae565b60408051918252519081900360200190f35b6102356004803603602081101561022557600080fd5b50356001600160a01b03166106b4565b604080519115158252519081900360200190f35b6101fd6004803603602081101561025f57600080fd5b503560ff166106c9565b6101fd6004803603602081101561027f57600080fd5b503560ff166106db565b6102356004803603602081101561029f57600080fd5b8101906020810181356401000000008111156102ba57600080fd5b8201836020820111156102cc57600080fd5b803590602001918460208302840111640100000000831117156102ee57600080fd5b9190808060200260200160405190810160405280939291908181526020018383602002808284376000920191909152509295506106ed945050505050565b610334610841565b005b610334610998565b6101fd610bd5565b6102356004803603602081101561035c57600080fd5b50356001600160a01b0316610bdb565b6101fd610c76565b61039a6004803603602081101561038a57600080fd5b50356001600160a01b0316610c7c565b6040805160ff9092168252519081900360200190f35b6101fd600480360360208110156103c657600080fd5b503560ff16610c9a565b6101fd610cac565b610334610cb2565b6101fd610d70565b6101fd610d76565b6103f8610d7c565b604080516001600160a01b039092168252519081900360200190f35b6101fd610d8b565b6102356004803603604081101561043257600080fd5b81019060208101813564010000000081111561044d57600080fd5b82018360208201111561045f57600080fd5b8035906020019184602083028401116401000000008311171561048157600080fd5b9190808060200260200160405190810160405280939291908181526020018383602002808284376000920191909152509295505050903560ff169150610d919050565b6104cc610f53565b604051808060200180602001838103835285818151815260200191508051906020019060200280838360005b838110156105105781810151838201526020016104f8565b50505050905001838103825284818151815260200191508051906020019060200280838360005b8381101561054f578181015183820152602001610537565b5050505090500194505050505060405180910390f35b6101fd61107e565b61039a6004803603602081101561058357600080fd5b50356001600160a01b0316611084565b6105b9600480360360208110156105a957600080fd5b50356001600160a01b0316611099565b604080516001600160a01b0390941684526020840192909252151582820152519081900360600190f35b6101fd6110c7565b6101fd6110cd565b6103f86110d3565b6103346004803603602081101561061157600080fd5b50356110e2565b61033461170a565b6103f861177e565b61063061178d565b60408051602080825283518183015283519192839290830191858101910280838360005b8381101561066c578181015183820152602001610654565b505050509050019250505060405180910390f35b6103346004803603602081101561069657600080fd5b50356001600160a01b03166117ef565b6103f8611903565b600d5481565b60106020526000908152604090205460ff1681565b60166020526000908152604090205481565b60146020526000908152604090205481565b60006106f7611912565b6001600160a01b0316610708610d7c565b6001600160a01b031614610763576040805162461bcd60e51b815260206004820181905260248201527f4f776e61626c653a2063616c6c6572206973206e6f7420746865206f776e6572604482015290519081900360640190fd5b60005b82518160ff161015610838576000838260ff168151811061078357fe5b6020026020010151116107c75760405162461bcd60e51b8152600401808060200182810382526022815260200180611fc96022913960400191505060405180910390fd5b828160ff16815181106107d657fe5b6020026020010151601460008360010160ff1660ff16815260200190815260200160002081905550828160ff168151811061080d57fe5b60209081029190910181015160ff600190930192831660009081526015909252604090912055610766565b50600192915050565b610849611912565b6001600160a01b031661085a610d7c565b6001600160a01b0316146108b5576040805162461bcd60e51b815260206004820181905260248201527f4f776e61626c653a2063616c6c6572206973206e6f7420746865206f776e6572604482015290519081900360640190fd5b600a54421015806108c65750600c54155b610917576040805162461bcd60e51b815260206004820152601960248201527f5075626c69632073616c65206e6f742079657420656e64656400000000000000604482015290519081900360640190fd5b6002600154141561096f576040805162461bcd60e51b815260206004820152601f60248201527f5265656e7472616e637947756172643a207265656e7472616e742063616c6c00604482015290519081900360640190fd5b6002600155600c5415610982576000600c555b61098a611916565b6109926119e0565b60018055565b600f544210156109d95760405162461bcd60e51b8152600401808060200182810382526032815260200180611feb6032913960400191505060405180910390fd5b60026001541415610a31576040805162461bcd60e51b815260206004820152601f60248201527f5265656e7472616e637947756172643a207265656e7472616e742063616c6c00604482015290519081900360640190fd5b600260018190553360009081526006602052604090209081015460ff1615610aa0576040805162461bcd60e51b815260206004820152601160248201527f416c72656164792077697468647261776e000000000000000000000000000000604482015290519081900360640190fd5b6000816001015411610af9576040805162461bcd60e51b815260206004820152600e60248201527f4f6e6c7920696e766573746f7273000000000000000000000000000000000000604482015290519081900360640190fd5b60028101805460ff191660019081179091556003548254918301546040805163a9059cbb60e01b81526001600160a01b039485166004820152602481019290925251929091169163a9059cbb916044808201926020929091908290030181600087803b158015610b6857600080fd5b505af1158015610b7c573d6000803e3d6000fd5b505050506040513d6020811015610b9257600080fd5b50506001810154604080519182525133917f47cee97cb7acd717b3c0aa1435d004cd5b3c8c57d70dbceb4e4458bbd60e39d4919081900360200190a25060018055565b60085481565b6000610be5611912565b6001600160a01b0316610bf6610d7c565b6001600160a01b031614610c51576040805162461bcd60e51b815260206004820181905260248201527f4f776e61626c653a2063616c6c6572206973206e6f7420746865206f776e6572604482015290519081900360640190fd5b50600280546001600160a01b0383166001600160a01b03199091161790556001919050565b60135481565b6001600160a01b031660009081526012602052604090205460ff1690565b60156020526000908152604090205481565b600c5481565b610cba611912565b6001600160a01b0316610ccb610d7c565b6001600160a01b031614610d26576040805162461bcd60e51b815260206004820181905260248201527f4f776e61626c653a2063616c6c6572206973206e6f7420746865206f776e6572604482015290519081900360640190fd5b600080546040516001600160a01b03909116907f8be0079c531659141344cd1fd0a4f28419497f9722a3daafe3b4186f6b6457e0908390a3600080546001600160a01b0319169055565b600e5481565b600a5481565b6000546001600160a01b031690565b600b5481565b6000610d9b611912565b6001600160a01b0316610dac610d7c565b6001600160a01b031614610e07576040805162461bcd60e51b815260206004820181905260248201527f4f776e61626c653a2063616c6c6572206973206e6f7420746865206f776e6572604482015290519081900360640190fd5b60005b8351811015610f475760106000858381518110610e2357fe5b6020908102919091018101516001600160a01b031682528101919091526040016000205460ff161515600114610f3f57600160106000868481518110610e6557fe5b60200260200101516001600160a01b03166001600160a01b0316815260200190815260200160002060006101000a81548160ff0219169083151502179055508260126000868481518110610eb557fe5b60200260200101516001600160a01b03166001600160a01b0316815260200190815260200160002060006101000a81548160ff021916908360ff1602179055506011848281518110610f0357fe5b60209081029190910181015182546001810184556000938452919092200180546001600160a01b0319166001600160a01b039092169190911790555b600101610e0a565b50600190505b92915050565b606080606060135467ffffffffffffffff81118015610f7157600080fd5b50604051908082528060200260200182016040528015610f9b578160200160208202803683370190505b509050606060135467ffffffffffffffff81118015610fb957600080fd5b50604051908082528060200260200182016040528015610fe3578160200160208202803683370190505b50905060005b6013548110156110745760006005828154811061100257fe5b60009182526020909120600290910201805485519192506001600160a01b03169085908490811061102f57fe5b60200260200101906001600160a01b031690816001600160a01b031681525050806001015483838151811061106057fe5b602090810291909101015250600101610fe9565b5090925090509091565b600f5481565b60126020526000908152604090205460ff1681565b6006602052600090815260409020805460018201546002909201546001600160a01b03909116919060ff1683565b60075481565b60095481565b6002546001600160a01b031681565b60075442101580156110f657506008544211155b80611110575060095442101580156111105750600a544211155b611161576040805162461bcd60e51b815260206004820181905260248201527f5075626c69632073616c65206973206e6f742079657420616374697661746564604482015290519081900360640190fd5b600260015414156111b9576040805162461bcd60e51b815260206004820152601f60248201527f5265656e7472616e637947756172643a207265656e7472616e742063616c6c00604482015290519081900360640190fd5b6002600155600c54611212576040805162461bcd60e51b815260206004820152601960248201527f416c6c20746f6b656e7320776572652070757263686173656400000000000000604482015290519081900360640190fd5b60008111611267576040805162461bcd60e51b815260206004820152601260248201527f416d6f756e74206d757374206265203e20300000000000000000000000000000604482015290519081900360640190fd5b600061127233610c7c565b905060008160ff16116112cc576040805162461bcd60e51b815260206004820152601760248201527f596f7520617265206e6f742077686974656c6973746564000000000000000000604482015290519081900360640190fd5b60ff811660009081526015602052604090205460095442106112ed5750600c545b8083111580156112ff5750600c548311155b611350576040805162461bcd60e51b815260206004820152601860248201527f4e6f7420656e6f75676820746f6b656e7320746f206275790000000000000000604482015290519081900360640190fd5b33600090815260066020526040902060085442116114115760ff8316600090815260166020526040902054600182015461138b908290611a75565b8511156113df576040805162461bcd60e51b815260206004820152601260248201527f427579206578636565647320616d6f756e740000000000000000000000000000604482015290519081900360640190fd5b60ff84166000908152601560205260409020546113fc9086611a75565b60ff8516600090815260156020526040902055505b600061143a670de0b6b3a7640000611434600b5488611ad290919063ffffffff16565b90611b32565b60048054604080516370a0823160e01b815233938101939093525192935083926001600160a01b03909116916370a08231916024808301926020929190829003018186803b15801561148b57600080fd5b505afa15801561149f573d6000803e3d6000fd5b505050506040513d60208110156114b557600080fd5b505110156114f45760405162461bcd60e51b81526004018080602001828103825260278152602001806120646027913960400191505060405180910390fd5b600c546115019086611a75565b600c5560045461151c906001600160a01b0316333084611b99565b6001820154611599576040805160608101825233808252602080830189815260008486018181529381526006909252939020915182546001600160a01b0319166001600160a01b03909116178255915160018083019190915591516002909101805460ff1916911515919091179055601380549091019055611622565b6040518060600160405280336001600160a01b031681526020016115ca846001015488611c0e90919063ffffffff16565b81526000602091820181905233815260068252604090819020835181546001600160a01b0319166001600160a01b0390911617815591830151600183015591909101516002909101805460ff19169115159190911790555b600e5461162f9086611c0e565b600e556040805180820182523380825260208083018981526005805460018101825560009190915293517f036b6384b5eca791c62761152d0c79bb0604c104a5fb6f4eb0703f3154bb3db0600290950294850180546001600160a01b0319166001600160a01b03909216919091179055517f036b6384b5eca791c62761152d0c79bb0604c104a5fb6f4eb0703f3154bb3db1909301929092558251848152918201889052825190927f1cbc5ab135991bd2b6a4b034a04aa2aa086dac1371cb9b16b8b5e2ed6b036bed928290030190a2505060018055505050565b611712611912565b6001600160a01b0316611723610d7c565b6001600160a01b031614610917576040805162461bcd60e51b815260206004820181905260248201527f4f776e61626c653a2063616c6c6572206973206e6f7420746865206f776e6572604482015290519081900360640190fd5b6004546001600160a01b031681565b606060118054806020026020016040519081016040528092919081815260200182805480156117e557602002820191906000526020600020905b81546001600160a01b031681526001909101906020018083116117c7575b5050505050905090565b6117f7611912565b6001600160a01b0316611808610d7c565b6001600160a01b031614611863576040805162461bcd60e51b815260206004820181905260248201527f4f776e61626c653a2063616c6c6572206973206e6f7420746865206f776e6572604482015290519081900360640190fd5b6001600160a01b0381166118a85760405162461bcd60e51b8152600401808060200182810382526026815260200180611fa36026913960400191505060405180910390fd5b600080546040516001600160a01b03808516939216917f8be0079c531659141344cd1fd0a4f28419497f9722a3daafe3b4186f6b6457e091a3600080546001600160a01b0319166001600160a01b0392909216919091179055565b6003546001600160a01b031681565b3390565b600354604080516370a0823160e01b815230600482015290516000926001600160a01b0316916370a08231916024808301926020929190829003018186803b15801561196157600080fd5b505afa158015611975573d6000803e3d6000fd5b505050506040513d602081101561198b57600080fd5b50516003549091506119a7906001600160a01b03163383611c68565b60408051828152905133917f884edad9ce6fa2440d8a54cc123490eb96d2768479d49ff9c7366125a9424364919081900360200190a250565b60048054604080516370a0823160e01b81523093810193909352516000926001600160a01b03909216916370a08231916024808301926020929190829003018186803b158015611a2f57600080fd5b505afa158015611a43573d6000803e3d6000fd5b505050506040513d6020811015611a5957600080fd5b50516004549091506119a7906001600160a01b03163383611c68565b600082821115611acc576040805162461bcd60e51b815260206004820152601e60248201527f536166654d6174683a207375627472616374696f6e206f766572666c6f770000604482015290519081900360640190fd5b50900390565b600082611ae157506000610f4d565b82820282848281611aee57fe5b0414611b2b5760405162461bcd60e51b81526004018080602001828103825260218152602001806120436021913960400191505060405180910390fd5b9392505050565b6000808211611b88576040805162461bcd60e51b815260206004820152601a60248201527f536166654d6174683a206469766973696f6e206279207a65726f000000000000604482015290519081900360640190fd5b818381611b9157fe5b049392505050565b604080516001600160a01b0380861660248301528416604482015260648082018490528251808303909101815260849091019091526020810180517bffffffffffffffffffffffffffffffffffffffffffffffffffffffff166323b872dd60e01b179052611c08908590611cd4565b50505050565b600082820183811015611b2b576040805162461bcd60e51b815260206004820152601b60248201527f536166654d6174683a206164646974696f6e206f766572666c6f770000000000604482015290519081900360640190fd5b604080516001600160a01b038416602482015260448082018490528251808303909101815260649091019091526020810180517bffffffffffffffffffffffffffffffffffffffffffffffffffffffff1663a9059cbb60e01b179052611ccf908490611cd4565b505050565b6060611d29826040518060400160405280602081526020017f5361666545524332303a206c6f772d6c6576656c2063616c6c206661696c6564815250856001600160a01b0316611d859092919063ffffffff16565b805190915015611ccf57808060200190516020811015611d4857600080fd5b5051611ccf5760405162461bcd60e51b815260040180806020018281038252602a81526020018061208b602a913960400191505060405180910390fd5b6060611d948484600085611d9c565b949350505050565b606082471015611ddd5760405162461bcd60e51b815260040180806020018281038252602681526020018061201d6026913960400191505060405180910390fd5b611de685611ef8565b611e37576040805162461bcd60e51b815260206004820152601d60248201527f416464726573733a2063616c6c20746f206e6f6e2d636f6e7472616374000000604482015290519081900360640190fd5b60006060866001600160a01b031685876040518082805190602001908083835b60208310611e765780518252601f199092019160209182019101611e57565b6001836020036101000a03801982511681845116808217855250505050505090500191505060006040518083038185875af1925050503d8060008114611ed8576040519150601f19603f3d011682016040523d82523d6000602084013e611edd565b606091505b5091509150611eed828286611efe565b979650505050505050565b3b151590565b60608315611f0d575081611b2b565b825115611f1d5782518084602001fd5b8160405162461bcd60e51b81526004018080602001828103825283818151815260200191508051906020019080838360005b83811015611f67578181015183820152602001611f4f565b50505050905090810190601f168015611f945780820380516001836020036101000a031916815260200191505b509250505060405180910390fdfe4f776e61626c653a206e6577206f776e657220697320746865207a65726f20616464726573735469657220616c6c6f636174696f6e20616d6f756e74206d757374206265203e2030506c65617365207761697420756e74696c2072656c656173652074696d6520666f7220636c61696d696e6720746f6b656e73416464726573733a20696e73756666696369656e742062616c616e636520666f722063616c6c536166654d6174683a206d756c7469706c69636174696f6e206f766572666c6f77496e73756666696369656e742063757272656e63792062616c616e6365206f662063616c6c65725361666545524332303a204552433230206f7065726174696f6e20646964206e6f742073756363656564a164736f6c6343000705000a526f756e643120656e642074696d65203e20526f756e64322073746172742074696d6543757272656e637920616464726573732063616e6e6f742062652061646472657373207a65726f526f756e64312073746172742074696d65203e20526f756e643220656e642074696d65546f6b656e20616464726573732063616e6e6f742062652061646472657373207a65726f526f756e64312073746172742074696d65203e20526f756e643120656e642074696d65",
  "linkReferences": {},
  "deployedLinkReferences": {}
}